{
  "_format": "hh-sol-artifact-1",
  "contractName": "Token",
  "sourceName": "contracts/Token.sol",
  "abi": [
    {
      "inputs": [
        {
          "internalType": "uint256",
          "name": "totalSupply",
          "type": "uint256"
        },
        {
          "internalType": "address",
          "name": "factoryAddress",
          "type": "address"
        },
        {
          "internalType": "address",
          "name": "_nonfungiblePositionManager",
          "type": "address"
        }
      ],
      "stateMutability": "nonpayable",
      "type": "constructor"
    },
    {
      "anonymous": false,
      "inputs": [
        {
          "indexed": true,
          "internalType": "address",
          "name": "owner",
          "type": "address"
        },
        {
          "indexed": true,
          "internalType": "address",
          "name": "spender",
          "type": "address"
        },
        {
          "indexed": false,
          "internalType": "uint256",
          "name": "value",
          "type": "uint256"
        }
      ],
      "name": "Approval",
      "type": "event"
    },
    {
      "anonymous": false,
      "inputs": [
        {
          "indexed": false,
          "internalType": "address",
          "name": "owner",
          "type": "address"
        }
      ],
      "name": "OwnershipChanged",
      "type": "event"
    },
    {
      "anonymous": false,
      "inputs": [
        {
          "indexed": false,
          "internalType": "address",
          "name": "pool",
          "type": "address"
        }
      ],
      "name": "PoolSuccessfullyCreated",
      "type": "event"
    },
    {
      "anonymous": false,
      "inputs": [
        {
          "indexed": false,
          "internalType": "uint256",
          "name": "tokenId",
          "type": "uint256"
        },
        {
          "indexed": false,
          "internalType": "uint128",
          "name": "liquidity",
          "type": "uint128"
        }
      ],
      "name": "PositionMinted",
      "type": "event"
    },
    {
      "anonymous": false,
      "inputs": [
        {
          "indexed": true,
          "internalType": "address",
          "name": "from",
          "type": "address"
        },
        {
          "indexed": true,
          "internalType": "address",
          "name": "to",
          "type": "address"
        },
        {
          "indexed": false,
          "internalType": "uint256",
          "name": "value",
          "type": "uint256"
        }
      ],
      "name": "Transfer",
      "type": "event"
    },
    {
      "inputs": [],
      "name": "WETH9",
      "outputs": [
        {
          "internalType": "address",
          "name": "",
          "type": "address"
        }
      ],
      "stateMutability": "view",
      "type": "function"
    },
    {
      "inputs": [
        {
          "internalType": "address",
          "name": "owner",
          "type": "address"
        },
        {
          "internalType": "address",
          "name": "spender",
          "type": "address"
        }
      ],
      "name": "allowance",
      "outputs": [
        {
          "internalType": "uint256",
          "name": "",
          "type": "uint256"
        }
      ],
      "stateMutability": "view",
      "type": "function"
    },
    {
      "inputs": [
        {
          "internalType": "address",
          "name": "spender",
          "type": "address"
        },
        {
          "internalType": "uint256",
          "name": "amount",
          "type": "uint256"
        }
      ],
      "name": "approve",
      "outputs": [
        {
          "internalType": "bool",
          "name": "",
          "type": "bool"
        }
      ],
      "stateMutability": "nonpayable",
      "type": "function"
    },
    {
      "inputs": [
        {
          "internalType": "address",
          "name": "account",
          "type": "address"
        }
      ],
      "name": "balanceOf",
      "outputs": [
        {
          "internalType": "uint256",
          "name": "",
          "type": "uint256"
        }
      ],
      "stateMutability": "view",
      "type": "function"
    },
    {
      "inputs": [
        {
          "internalType": "address",
          "name": "newOwner",
          "type": "address"
        }
      ],
      "name": "changeOwner",
      "outputs": [],
      "stateMutability": "nonpayable",
      "type": "function"
    },
    {
      "inputs": [
        {
          "internalType": "address",
          "name": "tokenB",
          "type": "address"
        },
        {
          "internalType": "uint24",
          "name": "fee",
          "type": "uint24"
        }
      ],
      "name": "createPool",
      "outputs": [],
      "stateMutability": "nonpayable",
      "type": "function"
    },
    {
      "inputs": [],
      "name": "decimals",
      "outputs": [
        {
          "internalType": "uint8",
          "name": "",
          "type": "uint8"
        }
      ],
      "stateMutability": "view",
      "type": "function"
    },
    {
      "inputs": [
        {
          "internalType": "address",
          "name": "spender",
          "type": "address"
        },
        {
          "internalType": "uint256",
          "name": "subtractedValue",
          "type": "uint256"
        }
      ],
      "name": "decreaseAllowance",
      "outputs": [
        {
          "internalType": "bool",
          "name": "",
          "type": "bool"
        }
      ],
      "stateMutability": "nonpayable",
      "type": "function"
    },
    {
      "inputs": [
        {
          "internalType": "uint256",
          "name": "",
          "type": "uint256"
        }
      ],
      "name": "deposits",
      "outputs": [
        {
          "internalType": "address",
          "name": "owner",
          "type": "address"
        },
        {
          "internalType": "uint128",
          "name": "liquidity",
          "type": "uint128"
        },
        {
          "internalType": "address",
          "name": "token0",
          "type": "address"
        },
        {
          "internalType": "address",
          "name": "token1",
          "type": "address"
        }
      ],
      "stateMutability": "view",
      "type": "function"
    },
    {
      "inputs": [],
      "name": "factory",
      "outputs": [
        {
          "internalType": "address",
          "name": "",
          "type": "address"
        }
      ],
      "stateMutability": "view",
      "type": "function"
    },
    {
      "inputs": [
        {
          "internalType": "address",
          "name": "spender",
          "type": "address"
        },
        {
          "internalType": "uint256",
          "name": "addedValue",
          "type": "uint256"
        }
      ],
      "name": "increaseAllowance",
      "outputs": [
        {
          "internalType": "bool",
          "name": "",
          "type": "bool"
        }
      ],
      "stateMutability": "nonpayable",
      "type": "function"
    },
    {
      "inputs": [
        {
          "internalType": "address",
          "name": "_token1",
          "type": "address"
        },
        {
          "internalType": "uint256",
          "name": "amount0ToMint",
          "type": "uint256"
        },
        {
          "internalType": "uint256",
          "name": "amount1ToMint",
          "type": "uint256"
        }
      ],
      "name": "mintPosition",
      "outputs": [
        {
          "internalType": "uint256",
          "name": "tokenId",
          "type": "uint256"
        },
        {
          "internalType": "uint128",
          "name": "liquidity",
          "type": "uint128"
        },
        {
          "internalType": "uint256",
          "name": "amount0",
          "type": "uint256"
        },
        {
          "internalType": "uint256",
          "name": "amount1",
          "type": "uint256"
        }
      ],
      "stateMutability": "nonpayable",
      "type": "function"
    },
    {
      "inputs": [],
      "name": "name",
      "outputs": [
        {
          "internalType": "string",
          "name": "",
          "type": "string"
        }
      ],
      "stateMutability": "view",
      "type": "function"
    },
    {
      "inputs": [],
      "name": "nonfungiblePositionManager",
      "outputs": [
        {
          "internalType": "contract INonfungiblePositionManager",
          "name": "",
          "type": "address"
        }
      ],
      "stateMutability": "view",
      "type": "function"
    },
    {
      "inputs": [],
      "name": "owner",
      "outputs": [
        {
          "internalType": "address",
          "name": "",
          "type": "address"
        }
      ],
      "stateMutability": "view",
      "type": "function"
    },
    {
      "inputs": [],
      "name": "refundETH",
      "outputs": [],
      "stateMutability": "payable",
      "type": "function"
    },
    {
      "inputs": [
        {
          "internalType": "address",
          "name": "token",
          "type": "address"
        },
        {
          "internalType": "uint256",
          "name": "amountMinimum",
          "type": "uint256"
        },
        {
          "internalType": "address",
          "name": "recipient",
          "type": "address"
        }
      ],
      "name": "sweepToken",
      "outputs": [],
      "stateMutability": "payable",
      "type": "function"
    },
    {
      "inputs": [],
      "name": "symbol",
      "outputs": [
        {
          "internalType": "string",
          "name": "",
          "type": "string"
        }
      ],
      "stateMutability": "view",
      "type": "function"
    },
    {
      "inputs": [],
      "name": "totalSupply",
      "outputs": [
        {
          "internalType": "uint256",
          "name": "",
          "type": "uint256"
        }
      ],
      "stateMutability": "view",
      "type": "function"
    },
    {
      "inputs": [
        {
          "internalType": "address",
          "name": "recipient",
          "type": "address"
        },
        {
          "internalType": "uint256",
          "name": "amount",
          "type": "uint256"
        }
      ],
      "name": "transfer",
      "outputs": [
        {
          "internalType": "bool",
          "name": "",
          "type": "bool"
        }
      ],
      "stateMutability": "nonpayable",
      "type": "function"
    },
    {
      "inputs": [
        {
          "internalType": "address",
          "name": "sender",
          "type": "address"
        },
        {
          "internalType": "address",
          "name": "recipient",
          "type": "address"
        },
        {
          "internalType": "uint256",
          "name": "amount",
          "type": "uint256"
        }
      ],
      "name": "transferFrom",
      "outputs": [
        {
          "internalType": "bool",
          "name": "",
          "type": "bool"
        }
      ],
      "stateMutability": "nonpayable",
      "type": "function"
    },
    {
      "inputs": [],
      "name": "uniswapV3FactoryAddress",
      "outputs": [
        {
          "internalType": "address",
          "name": "",
          "type": "address"
        }
      ],
      "stateMutability": "view",
      "type": "function"
    },
    {
      "inputs": [
        {
          "internalType": "uint256",
          "name": "amount0Owed",
          "type": "uint256"
        },
        {
          "internalType": "uint256",
          "name": "amount1Owed",
          "type": "uint256"
        },
        {
          "internalType": "bytes",
          "name": "data",
          "type": "bytes"
        }
      ],
      "name": "uniswapV3MintCallback",
      "outputs": [],
      "stateMutability": "nonpayable",
      "type": "function"
    },
    {
      "inputs": [
        {
          "internalType": "uint256",
          "name": "amountMinimum",
          "type": "uint256"
        },
        {
          "internalType": "address",
          "name": "recipient",
          "type": "address"
        }
      ],
      "name": "unwrapWETH9",
      "outputs": [],
      "stateMutability": "payable",
      "type": "function"
    },
    {
      "stateMutability": "payable",
      "type": "receive"
    }
  ],
  "bytecode": "0x60e06040523480156200001157600080fd5b5060405162003dd038038062003dd08339818101604052810190620000379190620005bf565b8173c02aaa39b223fe8d0a0e5c4f27ead9083c756cc26040518060400160405280601c81526020017f446563656e74204c6162732041737369676e6d656e7420546f6b656e000000008152506040518060400160405280600481526020017f444c4154000000000000000000000000000000000000000000000000000000008152508160039080519060200190620000d1929190620004db565b508060049080519060200190620000ea929190620004db565b506012600560006101000a81548160ff021916908360ff16021790555050508173ffffffffffffffffffffffffffffffffffffffff1660808173ffffffffffffffffffffffffffffffffffffffff1660601b815250508073ffffffffffffffffffffffffffffffffffffffff1660a08173ffffffffffffffffffffffffffffffffffffffff1660601b81525050505033600560016101000a81548173ffffffffffffffffffffffffffffffffffffffff021916908373ffffffffffffffffffffffffffffffffffffffff160217905550620001ee600560019054906101000a900473ffffffffffffffffffffffffffffffffffffffff16846200026f60201b60201c565b81600660006101000a81548173ffffffffffffffffffffffffffffffffffffffff021916908373ffffffffffffffffffffffffffffffffffffffff1602179055508073ffffffffffffffffffffffffffffffffffffffff1660c08173ffffffffffffffffffffffffffffffffffffffff1660601b8152505050505062000687565b600073ffffffffffffffffffffffffffffffffffffffff168273ffffffffffffffffffffffffffffffffffffffff16141562000313576040517f08c379a000000000000000000000000000000000000000000000000000000000815260040180806020018281038252601f8152602001807f45524332303a206d696e7420746f20746865207a65726f20616464726573730081525060200191505060405180910390fd5b62000327600083836200044d60201b60201c565b62000343816002546200045260201b6200192b1790919060201c565b600281905550620003a1816000808573ffffffffffffffffffffffffffffffffffffffff1673ffffffffffffffffffffffffffffffffffffffff168152602001908152602001600020546200045260201b6200192b1790919060201c565b6000808473ffffffffffffffffffffffffffffffffffffffff1673ffffffffffffffffffffffffffffffffffffffff168152602001908152602001600020819055508173ffffffffffffffffffffffffffffffffffffffff16600073ffffffffffffffffffffffffffffffffffffffff167fddf252ad1be2c89b69c2b068fc378daa952ba7f163c4a11628f55a4df523b3ef836040518082815260200191505060405180910390a35050565b505050565b600080828401905083811015620004d1576040517f08c379a000000000000000000000000000000000000000000000000000000000815260040180806020018281038252601b8152602001807f536166654d6174683a206164646974696f6e206f766572666c6f77000000000081525060200191505060405180910390fd5b8091505092915050565b828054600181600116156101000203166002900490600052602060002090601f0160209004810192826200051357600085556200055f565b82601f106200052e57805160ff19168380011785556200055f565b828001600101855582156200055f579182015b828111156200055e57825182559160200191906001019062000541565b5b5090506200056e919062000572565b5090565b5b808211156200058d57600081600090555060010162000573565b5090565b600081519050620005a28162000653565b92915050565b600081519050620005b9816200066d565b92915050565b600080600060608486031215620005d557600080fd5b6000620005e586828701620005a8565b9350506020620005f88682870162000591565b92505060406200060b8682870162000591565b9150509250925092565b6000620006228262000629565b9050919050565b600073ffffffffffffffffffffffffffffffffffffffff82169050919050565b6000819050919050565b6200065e8162000615565b81146200066a57600080fd5b50565b620006788162000649565b81146200068457600080fd5b50565b60805160601c60a05160601c60c05160601c6136d2620006fe60003980610848528061091652806109415280610a5b5280610cc15280610d09528061169a5250806101565280610e545280610f97528061103252806124f9528061255952806125da5250806116be52806116f852506136d26000f3fe60806040526004361061014f5760003560e01c80638b078beb116100b6578063b02c43d01161006f578063b02c43d01461056f578063b44a2722146105af578063c45a0155146105da578063d348799714610605578063dd62ed3e1461062e578063df2ab5bb1461066b57610217565b80638b078beb1461044d5780638da5cb5b1461047657806395d89b41146104a1578063a457c2d7146104cc578063a6f9dae114610509578063a9059cbb1461053257610217565b8063313ce56711610108578063313ce56714610336578063395093511461036157806349404b7c1461039e5780634aa4a4fc146103ba57806370a08231146103e557806380f5db8c1461042257610217565b806306fdde031461021c578063095ea7b31461024757806312210e8a1461028457806318160ddd1461028e57806323b872dd146102b95780632712369a146102f657610217565b36610217577f000000000000000000000000000000000000000000000000000000000000000073ffffffffffffffffffffffffffffffffffffffff163373ffffffffffffffffffffffffffffffffffffffff1614610215576040517f08c379a00000000000000000000000000000000000000000000000000000000081526004018080602001828103825260098152602001807f4e6f74205745544839000000000000000000000000000000000000000000000081525060200191505060405180910390fd5b005b600080fd5b34801561022857600080fd5b50610231610687565b60405161023e919061329f565b60405180910390f35b34801561025357600080fd5b5061026e60048036038101906102699190612d0f565b610729565b60405161027b919061324e565b60405180910390f35b61028c610747565b005b34801561029a57600080fd5b506102a361075d565b6040516102b091906132fd565b60405180910390f35b3480156102c557600080fd5b506102e060048036038101906102db9190612c84565b610767565b6040516102ed919061324e565b60405180910390f35b34801561030257600080fd5b5061031d60048036038101906103189190612d9a565b610840565b60405161032d9493929190613341565b60405180910390f35b34801561034257600080fd5b5061034b610d86565b6040516103589190613386565b60405180910390f35b34801561036d57600080fd5b5061038860048036038101906103839190612d0f565b610d9d565b604051610395919061324e565b60405180910390f35b6103b860048036038101906103b39190612e3b565b610e50565b005b3480156103c657600080fd5b506103cf611030565b6040516103dc9190613172565b60405180910390f35b3480156103f157600080fd5b5061040c60048036038101906104079190612bf6565b611054565b60405161041991906132fd565b60405180910390f35b34801561042e57600080fd5b5061043761109c565b6040516104449190613172565b60405180910390f35b34801561045957600080fd5b50610474600480360381019061046f9190612cd3565b6110c2565b005b34801561048257600080fd5b5061048b6112d2565b6040516104989190613172565b60405180910390f35b3480156104ad57600080fd5b506104b66112f8565b6040516104c3919061329f565b60405180910390f35b3480156104d857600080fd5b506104f360048036038101906104ee9190612d0f565b61139a565b604051610500919061324e565b60405180910390f35b34801561051557600080fd5b50610530600480360381019061052b9190612bf6565b611467565b005b34801561053e57600080fd5b5061055960048036038101906105549190612d0f565b6115ce565b604051610566919061324e565b60405180910390f35b34801561057b57600080fd5b5061059660048036038101906105919190612e12565b6115ec565b6040516105a69493929190613209565b60405180910390f35b3480156105bb57600080fd5b506105c4611698565b6040516105d19190613269565b60405180910390f35b3480156105e657600080fd5b506105ef6116bc565b6040516105fc9190613172565b60405180910390f35b34801561061157600080fd5b5061062c60048036038101906106279190612eda565b6116e0565b005b34801561063a57600080fd5b5061065560048036038101906106509190612c48565b61176d565b60405161066291906132fd565b60405180910390f35b61068560048036038101906106809190612d4b565b6117f4565b005b606060038054600181600116156101000203166002900480601f01602080910402602001604051908101604052809291908181526020018280546001816001161561010002031660029004801561071f5780601f106106f45761010080835404028352916020019161071f565b820191906000526020600020905b81548152906001019060200180831161070257829003601f168201915b5050505050905090565b600061073d6107366119b3565b84846119bb565b6001905092915050565b600047111561075b5761075a3347611bb2565b5b565b6000600254905090565b6000610774848484611d2e565b610835846107806119b3565b6108308560405180606001604052806028815260200161360760289139600160008b73ffffffffffffffffffffffffffffffffffffffff1673ffffffffffffffffffffffffffffffffffffffff16815260200190815260200160002060006107e66119b3565b73ffffffffffffffffffffffffffffffffffffffff1673ffffffffffffffffffffffffffffffffffffffff16815260200190815260200160002054611fef9092919063ffffffff16565b6119bb565b600190509392505050565b6000806000807f000000000000000000000000000000000000000000000000000000000000000073ffffffffffffffffffffffffffffffffffffffff166313ead5623089600660149054906101000a900462ffffff166633ebc7c431ab056040518563ffffffff1660e01b81526004016108bd94939291906131c4565b602060405180830381600087803b1580156108d757600080fd5b505af11580156108eb573d6000803e3d6000fd5b505050506040513d601f19601f8201168201806040525081019061090f9190612c1f565b5061093b307f0000000000000000000000000000000000000000000000000000000000000000886120a9565b610966877f0000000000000000000000000000000000000000000000000000000000000000876120a9565b60006040518061016001604052803073ffffffffffffffffffffffffffffffffffffffff1681526020018973ffffffffffffffffffffffffffffffffffffffff168152602001600660149054906101000a900462ffffff1662ffffff1681526020017ffffffffffffffffffffffffffffffffffffffffffffffffffffffffffff2764c60020b81526020017ffffffffffffffffffffffffffffffffffffffffffffffffffffffffffff2764c60000360020b815260200188815260200187815260200160008152602001600081526020013073ffffffffffffffffffffffffffffffffffffffff1681526020014281525090507f000000000000000000000000000000000000000000000000000000000000000073ffffffffffffffffffffffffffffffffffffffff166388316456826040518263ffffffff1660e01b8152600401610ab291906132e1565b608060405180830381600087803b158015610acc57600080fd5b505af1158015610ae0573d6000803e3d6000fd5b505050506040513d601f19601f82011682018060405250810190610b049190612e77565b8095508196508297508398505050505060405180608001604052803373ffffffffffffffffffffffffffffffffffffffff168152602001856fffffffffffffffffffffffffffffffff1681526020013073ffffffffffffffffffffffffffffffffffffffff1681526020018973ffffffffffffffffffffffffffffffffffffffff168152506007600087815260200190815260200160002060008201518160000160006101000a81548173ffffffffffffffffffffffffffffffffffffffff021916908373ffffffffffffffffffffffffffffffffffffffff16021790555060208201518160010160006101000a8154816fffffffffffffffffffffffffffffffff02191690836fffffffffffffffffffffffffffffffff16021790555060408201518160020160006101000a81548173ffffffffffffffffffffffffffffffffffffffff021916908373ffffffffffffffffffffffffffffffffffffffff16021790555060608201518160030160006101000a81548173ffffffffffffffffffffffffffffffffffffffff021916908373ffffffffffffffffffffffffffffffffffffffff16021790555090505086831015610cfb57610ce7307f000000000000000000000000000000000000000000000000000000000000000060006120a9565b60008388039050610cf93033836122aa565b505b85821015610d4357610d2f887f000000000000000000000000000000000000000000000000000000000000000060006120a9565b60008287039050610d418933836122aa565b505b7fd5b4de0972764062db802eadc2fb12de5f90c92bbf27a99f7771493832e698a78585604051610d74929190613318565b60405180910390a15093509350935093565b6000600560009054906101000a900460ff16905090565b6000610e46610daa6119b3565b84610e418560016000610dbb6119b3565b73ffffffffffffffffffffffffffffffffffffffff1673ffffffffffffffffffffffffffffffffffffffff16815260200190815260200160002060008973ffffffffffffffffffffffffffffffffffffffff1673ffffffffffffffffffffffffffffffffffffffff1681526020019081526020016000205461192b90919063ffffffff16565b6119bb565b6001905092915050565b60007f000000000000000000000000000000000000000000000000000000000000000073ffffffffffffffffffffffffffffffffffffffff166370a08231306040518263ffffffff1660e01b8152600401808273ffffffffffffffffffffffffffffffffffffffff16815260200191505060206040518083038186803b158015610ed957600080fd5b505afa158015610eed573d6000803e3d6000fd5b505050506040513d6020811015610f0357600080fd5b8101908080519060200190929190505050905082811015610f8c576040517f08c379a00000000000000000000000000000000000000000000000000000000081526004018080602001828103825260128152602001807f496e73756666696369656e74205745544839000000000000000000000000000081525060200191505060405180910390fd5b600081111561102b577f000000000000000000000000000000000000000000000000000000000000000073ffffffffffffffffffffffffffffffffffffffff16632e1a7d4d826040518263ffffffff1660e01b815260040180828152602001915050600060405180830381600087803b15801561100857600080fd5b505af115801561101c573d6000803e3d6000fd5b5050505061102a8282611bb2565b5b505050565b7f000000000000000000000000000000000000000000000000000000000000000081565b60008060008373ffffffffffffffffffffffffffffffffffffffff1673ffffffffffffffffffffffffffffffffffffffff168152602001908152602001600020549050919050565b600660009054906101000a900473ffffffffffffffffffffffffffffffffffffffff1681565b600560019054906101000a900473ffffffffffffffffffffffffffffffffffffffff1673ffffffffffffffffffffffffffffffffffffffff163373ffffffffffffffffffffffffffffffffffffffff1614611152576040517f08c379a0000000000000000000000000000000000000000000000000000000008152600401611149906132c1565b60405180910390fd5b6000600660009054906101000a900473ffffffffffffffffffffffffffffffffffffffff1673ffffffffffffffffffffffffffffffffffffffff1663a16712953085856040518463ffffffff1660e01b81526004016111b39392919061318d565b602060405180830381600087803b1580156111cd57600080fd5b505af11580156111e1573d6000803e3d6000fd5b505050506040513d601f19601f820116820180604052508101906112059190612c1f565b90508073ffffffffffffffffffffffffffffffffffffffff1663f637731d6401000276a36040518263ffffffff1660e01b81526004016112459190613284565b600060405180830381600087803b15801561125f57600080fd5b505af1158015611273573d6000803e3d6000fd5b5050505081600660146101000a81548162ffffff021916908362ffffff1602179055507f87d8b330a71d4409400e251d73affac8736c3b5307a5abdb189374943d155fef816040516112c59190613172565b60405180910390a1505050565b600560019054906101000a900473ffffffffffffffffffffffffffffffffffffffff1681565b606060048054600181600116156101000203166002900480601f0160208091040260200160405190810160405280929190818152602001828054600181600116156101000203166002900480156113905780601f1061136557610100808354040283529160200191611390565b820191906000526020600020905b81548152906001019060200180831161137357829003601f168201915b5050505050905090565b600061145d6113a76119b3565b846114588560405180606001604052806025815260200161367860259139600160006113d16119b3565b73ffffffffffffffffffffffffffffffffffffffff1673ffffffffffffffffffffffffffffffffffffffff16815260200190815260200160002060008a73ffffffffffffffffffffffffffffffffffffffff1673ffffffffffffffffffffffffffffffffffffffff16815260200190815260200160002054611fef9092919063ffffffff16565b6119bb565b6001905092915050565b600560019054906101000a900473ffffffffffffffffffffffffffffffffffffffff1673ffffffffffffffffffffffffffffffffffffffff163373ffffffffffffffffffffffffffffffffffffffff16146114f7576040517f08c379a00000000000000000000000000000000000000000000000000000000081526004016114ee906132c1565b60405180910390fd5b600073ffffffffffffffffffffffffffffffffffffffff168173ffffffffffffffffffffffffffffffffffffffff16141561153157600080fd5b80600560016101000a81548173ffffffffffffffffffffffffffffffffffffffff021916908373ffffffffffffffffffffffffffffffffffffffff1602179055507f595ee9ffef04d4d652b768860c56905a48f5ab79124bb3b2279df1885536991d600560019054906101000a900473ffffffffffffffffffffffffffffffffffffffff166040516115c39190613172565b60405180910390a150565b60006115e26115db6119b3565b8484611d2e565b6001905092915050565b60076020528060005260406000206000915090508060000160009054906101000a900473ffffffffffffffffffffffffffffffffffffffff16908060010160009054906101000a90046fffffffffffffffffffffffffffffffff16908060020160009054906101000a900473ffffffffffffffffffffffffffffffffffffffff16908060030160009054906101000a900473ffffffffffffffffffffffffffffffffffffffff16905084565b7f000000000000000000000000000000000000000000000000000000000000000081565b7f000000000000000000000000000000000000000000000000000000000000000081565b600082828101906116f19190612de9565b90506117217f000000000000000000000000000000000000000000000000000000000000000082600001516124ab565b50600085111561174457611743816000015160000151826020015133886124f7565b5b600084111561176657611765816000015160200151826020015133876124f7565b5b5050505050565b6000600160008473ffffffffffffffffffffffffffffffffffffffff1673ffffffffffffffffffffffffffffffffffffffff16815260200190815260200160002060008373ffffffffffffffffffffffffffffffffffffffff1673ffffffffffffffffffffffffffffffffffffffff16815260200190815260200160002054905092915050565b60008373ffffffffffffffffffffffffffffffffffffffff166370a08231306040518263ffffffff1660e01b8152600401808273ffffffffffffffffffffffffffffffffffffffff16815260200191505060206040518083038186803b15801561185d57600080fd5b505afa158015611871573d6000803e3d6000fd5b505050506040513d602081101561188757600080fd5b8101908080519060200190929190505050905082811015611910576040517f08c379a00000000000000000000000000000000000000000000000000000000081526004018080602001828103825260128152602001807f496e73756666696369656e7420746f6b656e000000000000000000000000000081525060200191505060405180910390fd5b6000811115611925576119248483836122aa565b5b50505050565b6000808284019050838110156119a9576040517f08c379a000000000000000000000000000000000000000000000000000000000815260040180806020018281038252601b8152602001807f536166654d6174683a206164646974696f6e206f766572666c6f77000000000081525060200191505060405180910390fd5b8091505092915050565b600033905090565b600073ffffffffffffffffffffffffffffffffffffffff168373ffffffffffffffffffffffffffffffffffffffff161415611a41576040517f08c379a00000000000000000000000000000000000000000000000000000000081526004018080602001828103825260248152602001806136546024913960400191505060405180910390fd5b600073ffffffffffffffffffffffffffffffffffffffff168273ffffffffffffffffffffffffffffffffffffffff161415611ac7576040517f08c379a00000000000000000000000000000000000000000000000000000000081526004018080602001828103825260228152602001806135bf6022913960400191505060405180910390fd5b80600160008573ffffffffffffffffffffffffffffffffffffffff1673ffffffffffffffffffffffffffffffffffffffff16815260200190815260200160002060008473ffffffffffffffffffffffffffffffffffffffff1673ffffffffffffffffffffffffffffffffffffffff168152602001908152602001600020819055508173ffffffffffffffffffffffffffffffffffffffff168373ffffffffffffffffffffffffffffffffffffffff167f8c5be1e5ebec7d5bd14f71427d1e84f3dd0314c0f7b2291e5b200ac8c7c3b925836040518082815260200191505060405180910390a3505050565b60008273ffffffffffffffffffffffffffffffffffffffff1682600067ffffffffffffffff81118015611be457600080fd5b506040519080825280601f01601f191660200182016040528015611c175781602001600182028036833780820191505090505b506040518082805190602001908083835b60208310611c4b5780518252602082019150602081019050602083039250611c28565b6001836020036101000a03801982511681845116808217855250505050505090500191505060006040518083038185875af1925050503d8060008114611cad576040519150601f19603f3d011682016040523d82523d6000602084013e611cb2565b606091505b5050905080611d29576040517f08c379a00000000000000000000000000000000000000000000000000000000081526004018080602001828103825260038152602001807f535445000000000000000000000000000000000000000000000000000000000081525060200191505060405180910390fd5b505050565b600073ffffffffffffffffffffffffffffffffffffffff168373ffffffffffffffffffffffffffffffffffffffff161415611db4576040517f08c379a000000000000000000000000000000000000000000000000000000000815260040180806020018281038252602581526020018061362f6025913960400191505060405180910390fd5b600073ffffffffffffffffffffffffffffffffffffffff168273ffffffffffffffffffffffffffffffffffffffff161415611e3a576040517f08c379a000000000000000000000000000000000000000000000000000000000815260040180806020018281038252602381526020018061359c6023913960400191505060405180910390fd5b611e45838383612702565b611eb0816040518060600160405280602681526020016135e1602691396000808773ffffffffffffffffffffffffffffffffffffffff1673ffffffffffffffffffffffffffffffffffffffff16815260200190815260200160002054611fef9092919063ffffffff16565b6000808573ffffffffffffffffffffffffffffffffffffffff1673ffffffffffffffffffffffffffffffffffffffff16815260200190815260200160002081905550611f43816000808573ffffffffffffffffffffffffffffffffffffffff1673ffffffffffffffffffffffffffffffffffffffff1681526020019081526020016000205461192b90919063ffffffff16565b6000808473ffffffffffffffffffffffffffffffffffffffff1673ffffffffffffffffffffffffffffffffffffffff168152602001908152602001600020819055508173ffffffffffffffffffffffffffffffffffffffff168373ffffffffffffffffffffffffffffffffffffffff167fddf252ad1be2c89b69c2b068fc378daa952ba7f163c4a11628f55a4df523b3ef836040518082815260200191505060405180910390a3505050565b600083831115829061209c576040517f08c379a00000000000000000000000000000000000000000000000000000000081526004018080602001828103825283818151815260200191508051906020019080838360005b83811015612061578082015181840152602081019050612046565b50505050905090810190601f16801561208e5780820380516001836020036101000a031916815260200191505b509250505060405180910390fd5b5082840390509392505050565b6000808473ffffffffffffffffffffffffffffffffffffffff1663095ea7b360e01b8585604051602401808373ffffffffffffffffffffffffffffffffffffffff16815260200182815260200192505050604051602081830303815290604052907bffffffffffffffffffffffffffffffffffffffffffffffffffffffff19166020820180517bffffffffffffffffffffffffffffffffffffffffffffffffffffffff83818316178352505050506040518082805190602001908083835b6020831061218a5780518252602082019150602081019050602083039250612167565b6001836020036101000a0380198251168184511680821785525050505050509050019150506000604051808303816000865af19150503d80600081146121ec576040519150601f19603f3d011682016040523d82523d6000602084013e6121f1565b606091505b50915091508180156122315750600081511480612230575080806020019051602081101561221e57600080fd5b81019080805190602001909291905050505b5b6122a3576040517f08c379a00000000000000000000000000000000000000000000000000000000081526004018080602001828103825260028152602001807f534100000000000000000000000000000000000000000000000000000000000081525060200191505060405180910390fd5b5050505050565b6000808473ffffffffffffffffffffffffffffffffffffffff1663a9059cbb60e01b8585604051602401808373ffffffffffffffffffffffffffffffffffffffff16815260200182815260200192505050604051602081830303815290604052907bffffffffffffffffffffffffffffffffffffffffffffffffffffffff19166020820180517bffffffffffffffffffffffffffffffffffffffffffffffffffffffff83818316178352505050506040518082805190602001908083835b6020831061238b5780518252602082019150602081019050602083039250612368565b6001836020036101000a0380198251168184511680821785525050505050509050019150506000604051808303816000865af19150503d80600081146123ed576040519150601f19603f3d011682016040523d82523d6000602084013e6123f2565b606091505b50915091508180156124325750600081511480612431575080806020019051602081101561241f57600080fd5b81019080805190602001909291905050505b5b6124a4576040517f08c379a00000000000000000000000000000000000000000000000000000000081526004018080602001828103825260028152602001807f535400000000000000000000000000000000000000000000000000000000000081525060200191505060405180910390fd5b5050505050565b60006124b78383612707565b90508073ffffffffffffffffffffffffffffffffffffffff163373ffffffffffffffffffffffffffffffffffffffff16146124f157600080fd5b92915050565b7f000000000000000000000000000000000000000000000000000000000000000073ffffffffffffffffffffffffffffffffffffffff168473ffffffffffffffffffffffffffffffffffffffff161480156125525750804710155b156126aa577f000000000000000000000000000000000000000000000000000000000000000073ffffffffffffffffffffffffffffffffffffffff1663d0e30db0826040518263ffffffff1660e01b81526004016000604051808303818588803b1580156125bf57600080fd5b505af11580156125d3573d6000803e3d6000fd5b50505050507f000000000000000000000000000000000000000000000000000000000000000073ffffffffffffffffffffffffffffffffffffffff1663a9059cbb83836040518363ffffffff1660e01b8152600401808373ffffffffffffffffffffffffffffffffffffffff16815260200182815260200192505050602060405180830381600087803b15801561266957600080fd5b505af115801561267d573d6000803e3d6000fd5b505050506040513d602081101561269357600080fd5b8101908080519060200190929190505050506126fc565b3073ffffffffffffffffffffffffffffffffffffffff168373ffffffffffffffffffffffffffffffffffffffff1614156126ee576126e98483836122aa565b6126fb565b6126fa84848484612862565b5b5b50505050565b505050565b6000816020015173ffffffffffffffffffffffffffffffffffffffff16826000015173ffffffffffffffffffffffffffffffffffffffff161061274957600080fd5b82826000015183602001518460400151604051602001808473ffffffffffffffffffffffffffffffffffffffff1681526020018373ffffffffffffffffffffffffffffffffffffffff1681526020018262ffffff1681526020019350505050604051602081830303815290604052805190602001207fe34f199b19b2b4f47f68442619d555527d244f78a3297ea89325f843f87b8b5460001b60405160200180807fff000000000000000000000000000000000000000000000000000000000000008152506001018473ffffffffffffffffffffffffffffffffffffffff1660601b815260140183815260200182815260200193505050506040516020818303038152906040528051906020012060001c905092915050565b6000808573ffffffffffffffffffffffffffffffffffffffff166323b872dd60e01b868686604051602401808473ffffffffffffffffffffffffffffffffffffffff1681526020018373ffffffffffffffffffffffffffffffffffffffff1681526020018281526020019350505050604051602081830303815290604052907bffffffffffffffffffffffffffffffffffffffffffffffffffffffff19166020820180517bffffffffffffffffffffffffffffffffffffffffffffffffffffffff83818316178352505050506040518082805190602001908083835b60208310612961578051825260208201915060208101905060208303925061293e565b6001836020036101000a0380198251168184511680821785525050505050509050019150506000604051808303816000865af19150503d80600081146129c3576040519150601f19603f3d011682016040523d82523d6000602084013e6129c8565b606091505b5091509150818015612a085750600081511480612a0757508080602001905160208110156129f557600080fd5b81019080805190602001909291905050505b5b612a7a576040517f08c379a00000000000000000000000000000000000000000000000000000000081526004018080602001828103825260038152602001807f535446000000000000000000000000000000000000000000000000000000000081525060200191505060405180910390fd5b505050505050565b600081359050612a918161353f565b92915050565b600081519050612aa68161353f565b92915050565b60008083601f840112612abe57600080fd5b8235905067ffffffffffffffff811115612ad757600080fd5b602083019150836001820283011115612aef57600080fd5b9250929050565b600060808284031215612b0857600080fd5b612b1260406133a1565b90506000612b2284828501612b42565b6000830152506060612b3684828501612a82565b60208301525092915050565b600060608284031215612b5457600080fd5b612b5e60606133a1565b90506000612b6e84828501612a82565b6000830152506020612b8284828501612a82565b6020830152506040612b9684828501612bb7565b60408301525092915050565b600081519050612bb181613556565b92915050565b600081359050612bc68161356d565b92915050565b600081359050612bdb81613584565b92915050565b600081519050612bf081613584565b92915050565b600060208284031215612c0857600080fd5b6000612c1684828501612a82565b91505092915050565b600060208284031215612c3157600080fd5b6000612c3f84828501612a97565b91505092915050565b60008060408385031215612c5b57600080fd5b6000612c6985828601612a82565b9250506020612c7a85828601612a82565b9150509250929050565b600080600060608486031215612c9957600080fd5b6000612ca786828701612a82565b9350506020612cb886828701612a82565b9250506040612cc986828701612bcc565b9150509250925092565b60008060408385031215612ce657600080fd5b6000612cf485828601612a82565b9250506020612d0585828601612bb7565b9150509250929050565b60008060408385031215612d2257600080fd5b6000612d3085828601612a82565b9250506020612d4185828601612bcc565b9150509250929050565b600080600060608486031215612d6057600080fd5b6000612d6e86828701612a82565b9350506020612d7f86828701612bcc565b9250506040612d9086828701612a82565b9150509250925092565b600080600060608486031215612daf57600080fd5b6000612dbd86828701612a82565b9350506020612dce86828701612bcc565b9250506040612ddf86828701612bcc565b9150509250925092565b600060808284031215612dfb57600080fd5b6000612e0984828501612af6565b91505092915050565b600060208284031215612e2457600080fd5b6000612e3284828501612bcc565b91505092915050565b60008060408385031215612e4e57600080fd5b6000612e5c85828601612bcc565b9250506020612e6d85828601612a82565b9150509250929050565b60008060008060808587031215612e8d57600080fd5b6000612e9b87828801612be1565b9450506020612eac87828801612ba2565b9350506040612ebd87828801612be1565b9250506060612ece87828801612be1565b91505092959194509250565b60008060008060608587031215612ef057600080fd5b6000612efe87828801612bcc565b9450506020612f0f87828801612bcc565b935050604085013567ffffffffffffffff811115612f2c57600080fd5b612f3887828801612aac565b925092505092959194509250565b612f4f8161347b565b82525050565b612f5e816133ee565b82525050565b612f6d816133ee565b82525050565b612f7c81613400565b82525050565b612f8b8161348d565b82525050565b612f9a8161340c565b82525050565b612fa9816134b1565b82525050565b612fb8816134c3565b82525050565b6000612fc9826133d2565b612fd381856133dd565b9350612fe38185602086016134f9565b612fec8161352e565b840191505092915050565b6000613004601d836133dd565b91507f54686973206973206e6f74206f776e6572206f6620636f6e74726163740000006000830152602082019050919050565b6101608201600082015161304e6000850182612f55565b5060208201516130616020850182612f55565b5060408201516130746040850182613127565b5060608201516130876060850182612f91565b50608082015161309a6080850182612f91565b5060a08201516130ad60a0850182613145565b5060c08201516130c060c0850182613145565b5060e08201516130d360e0850182613145565b506101008201516130e8610100850182613145565b506101208201516130fd610120850182612f55565b50610140820151613112610140850182613145565b50505050565b61312181613419565b82525050565b61313081613455565b82525050565b61313f81613455565b82525050565b61314e81613464565b82525050565b61315d81613464565b82525050565b61316c8161346e565b82525050565b60006020820190506131876000830184612f64565b92915050565b60006060820190506131a26000830186612f46565b6131af6020830185612f64565b6131bc6040830184613136565b949350505050565b60006080820190506131d96000830187612f46565b6131e66020830186612f64565b6131f36040830185613136565b6132006060830184612fa0565b95945050505050565b600060808201905061321e6000830187612f64565b61322b6020830186613118565b6132386040830185612f64565b6132456060830184612f64565b95945050505050565b60006020820190506132636000830184612f73565b92915050565b600060208201905061327e6000830184612f82565b92915050565b60006020820190506132996000830184612faf565b92915050565b600060208201905081810360008301526132b98184612fbe565b905092915050565b600060208201905081810360008301526132da81612ff7565b9050919050565b6000610160820190506132f76000830184613037565b92915050565b60006020820190506133126000830184613154565b92915050565b600060408201905061332d6000830185613154565b61333a6020830184613118565b9392505050565b60006080820190506133566000830187613154565b6133636020830186613118565b6133706040830185613154565b61337d6060830184613154565b95945050505050565b600060208201905061339b6000830184613163565b92915050565b6000604051905081810181811067ffffffffffffffff821117156133c8576133c761352c565b5b8060405250919050565b600081519050919050565b600082825260208201905092915050565b60006133f982613435565b9050919050565b60008115159050919050565b60008160020b9050919050565b60006fffffffffffffffffffffffffffffffff82169050919050565b600073ffffffffffffffffffffffffffffffffffffffff82169050919050565b600062ffffff82169050919050565b6000819050919050565b600060ff82169050919050565b6000613486826134d5565b9050919050565b60006134988261349f565b9050919050565b60006134aa82613435565b9050919050565b60006134bc82613435565b9050919050565b60006134ce82613435565b9050919050565b60006134e0826134e7565b9050919050565b60006134f282613435565b9050919050565b60005b838110156135175780820151818401526020810190506134fc565b83811115613526576000848401525b50505050565bfe5b6000601f19601f8301169050919050565b613548816133ee565b811461355357600080fd5b50565b61355f81613419565b811461356a57600080fd5b50565b61357681613455565b811461358157600080fd5b50565b61358d81613464565b811461359857600080fd5b5056fe45524332303a207472616e7366657220746f20746865207a65726f206164647265737345524332303a20617070726f766520746f20746865207a65726f206164647265737345524332303a207472616e7366657220616d6f756e7420657863656564732062616c616e636545524332303a207472616e7366657220616d6f756e74206578636565647320616c6c6f77616e636545524332303a207472616e736665722066726f6d20746865207a65726f206164647265737345524332303a20617070726f76652066726f6d20746865207a65726f206164647265737345524332303a2064656372656173656420616c6c6f77616e63652062656c6f77207a65726fa26469706673582212207eaea2c635735af4c2bb1c4592d06c3c1394691ceee64cac5e71a4d3a6d7a88364736f6c63430007060033",
  "linkReferences": {},
  "deployedLinkReferences": {}
}