{
  "_format": "hh-sol-artifact-1",
  "contractName": "Token",
  "sourceName": "contracts/Token.sol",
  "abi": [
    {
      "inputs": [
        {
          "internalType": "uint256",
          "name": "totalSupply",
          "type": "uint256"
        },
        {
          "internalType": "address",
          "name": "factoryAddress",
          "type": "address"
        },
        {
          "internalType": "address",
          "name": "_nonfungiblePositionManager",
          "type": "address"
        }
      ],
      "stateMutability": "nonpayable",
      "type": "constructor"
    },
    {
      "anonymous": false,
      "inputs": [
        {
          "indexed": false,
          "internalType": "uint128",
          "name": "liquidity",
          "type": "uint128"
        }
      ],
      "name": "AddedLiquidity",
      "type": "event"
    },
    {
      "anonymous": false,
      "inputs": [
        {
          "indexed": true,
          "internalType": "address",
          "name": "owner",
          "type": "address"
        },
        {
          "indexed": true,
          "internalType": "address",
          "name": "spender",
          "type": "address"
        },
        {
          "indexed": false,
          "internalType": "uint256",
          "name": "value",
          "type": "uint256"
        }
      ],
      "name": "Approval",
      "type": "event"
    },
    {
      "anonymous": false,
      "inputs": [
        {
          "indexed": false,
          "internalType": "address",
          "name": "owner",
          "type": "address"
        }
      ],
      "name": "OwnershipChanged",
      "type": "event"
    },
    {
      "anonymous": false,
      "inputs": [
        {
          "indexed": false,
          "internalType": "address",
          "name": "pool",
          "type": "address"
        }
      ],
      "name": "PoolSuccessfullyCreated",
      "type": "event"
    },
    {
      "anonymous": false,
      "inputs": [
        {
          "indexed": true,
          "internalType": "address",
          "name": "from",
          "type": "address"
        },
        {
          "indexed": true,
          "internalType": "address",
          "name": "to",
          "type": "address"
        },
        {
          "indexed": false,
          "internalType": "uint256",
          "name": "value",
          "type": "uint256"
        }
      ],
      "name": "Transfer",
      "type": "event"
    },
    {
      "inputs": [],
      "name": "WETH9",
      "outputs": [
        {
          "internalType": "address",
          "name": "",
          "type": "address"
        }
      ],
      "stateMutability": "view",
      "type": "function"
    },
    {
      "inputs": [
        {
          "internalType": "address",
          "name": "owner",
          "type": "address"
        },
        {
          "internalType": "address",
          "name": "spender",
          "type": "address"
        }
      ],
      "name": "allowance",
      "outputs": [
        {
          "internalType": "uint256",
          "name": "",
          "type": "uint256"
        }
      ],
      "stateMutability": "view",
      "type": "function"
    },
    {
      "inputs": [
        {
          "internalType": "address",
          "name": "spender",
          "type": "address"
        },
        {
          "internalType": "uint256",
          "name": "amount",
          "type": "uint256"
        }
      ],
      "name": "approve",
      "outputs": [
        {
          "internalType": "bool",
          "name": "",
          "type": "bool"
        }
      ],
      "stateMutability": "nonpayable",
      "type": "function"
    },
    {
      "inputs": [
        {
          "internalType": "address",
          "name": "account",
          "type": "address"
        }
      ],
      "name": "balanceOf",
      "outputs": [
        {
          "internalType": "uint256",
          "name": "",
          "type": "uint256"
        }
      ],
      "stateMutability": "view",
      "type": "function"
    },
    {
      "inputs": [
        {
          "internalType": "address",
          "name": "newOwner",
          "type": "address"
        }
      ],
      "name": "changeOwner",
      "outputs": [],
      "stateMutability": "nonpayable",
      "type": "function"
    },
    {
      "inputs": [
        {
          "internalType": "address",
          "name": "tokenB",
          "type": "address"
        },
        {
          "internalType": "uint24",
          "name": "fee",
          "type": "uint24"
        }
      ],
      "name": "createPool",
      "outputs": [],
      "stateMutability": "nonpayable",
      "type": "function"
    },
    {
      "inputs": [],
      "name": "decimals",
      "outputs": [
        {
          "internalType": "uint8",
          "name": "",
          "type": "uint8"
        }
      ],
      "stateMutability": "view",
      "type": "function"
    },
    {
      "inputs": [
        {
          "internalType": "address",
          "name": "spender",
          "type": "address"
        },
        {
          "internalType": "uint256",
          "name": "subtractedValue",
          "type": "uint256"
        }
      ],
      "name": "decreaseAllowance",
      "outputs": [
        {
          "internalType": "bool",
          "name": "",
          "type": "bool"
        }
      ],
      "stateMutability": "nonpayable",
      "type": "function"
    },
    {
      "inputs": [
        {
          "internalType": "uint256",
          "name": "",
          "type": "uint256"
        }
      ],
      "name": "deposits",
      "outputs": [
        {
          "internalType": "address",
          "name": "owner",
          "type": "address"
        },
        {
          "internalType": "uint128",
          "name": "liquidity",
          "type": "uint128"
        },
        {
          "internalType": "address",
          "name": "token0",
          "type": "address"
        },
        {
          "internalType": "address",
          "name": "token1",
          "type": "address"
        }
      ],
      "stateMutability": "view",
      "type": "function"
    },
    {
      "inputs": [],
      "name": "factory",
      "outputs": [
        {
          "internalType": "address",
          "name": "",
          "type": "address"
        }
      ],
      "stateMutability": "view",
      "type": "function"
    },
    {
      "inputs": [
        {
          "internalType": "address",
          "name": "spender",
          "type": "address"
        },
        {
          "internalType": "uint256",
          "name": "addedValue",
          "type": "uint256"
        }
      ],
      "name": "increaseAllowance",
      "outputs": [
        {
          "internalType": "bool",
          "name": "",
          "type": "bool"
        }
      ],
      "stateMutability": "nonpayable",
      "type": "function"
    },
    {
      "inputs": [
        {
          "internalType": "address",
          "name": "_token1",
          "type": "address"
        },
        {
          "internalType": "uint256",
          "name": "amount0ToMint",
          "type": "uint256"
        },
        {
          "internalType": "uint256",
          "name": "amount1ToMint",
          "type": "uint256"
        }
      ],
      "name": "mintPosition",
      "outputs": [
        {
          "internalType": "uint256",
          "name": "tokenId",
          "type": "uint256"
        },
        {
          "internalType": "uint128",
          "name": "liquidity",
          "type": "uint128"
        },
        {
          "internalType": "uint256",
          "name": "amount0",
          "type": "uint256"
        },
        {
          "internalType": "uint256",
          "name": "amount1",
          "type": "uint256"
        }
      ],
      "stateMutability": "nonpayable",
      "type": "function"
    },
    {
      "inputs": [],
      "name": "name",
      "outputs": [
        {
          "internalType": "string",
          "name": "",
          "type": "string"
        }
      ],
      "stateMutability": "view",
      "type": "function"
    },
    {
      "inputs": [],
      "name": "nonfungiblePositionManager",
      "outputs": [
        {
          "internalType": "contract INonfungiblePositionManager",
          "name": "",
          "type": "address"
        }
      ],
      "stateMutability": "view",
      "type": "function"
    },
    {
      "inputs": [],
      "name": "owner",
      "outputs": [
        {
          "internalType": "address",
          "name": "",
          "type": "address"
        }
      ],
      "stateMutability": "view",
      "type": "function"
    },
    {
      "inputs": [],
      "name": "refundETH",
      "outputs": [],
      "stateMutability": "payable",
      "type": "function"
    },
    {
      "inputs": [
        {
          "internalType": "address",
          "name": "_token1",
          "type": "address"
        },
        {
          "internalType": "uint256",
          "name": "amount0ToMint",
          "type": "uint256"
        },
        {
          "internalType": "uint256",
          "name": "amount1ToMint",
          "type": "uint256"
        }
      ],
      "name": "seedLiquidity",
      "outputs": [
        {
          "internalType": "uint128",
          "name": "liquidity",
          "type": "uint128"
        },
        {
          "internalType": "uint256",
          "name": "amount0",
          "type": "uint256"
        },
        {
          "internalType": "uint256",
          "name": "amount1",
          "type": "uint256"
        },
        {
          "internalType": "contract IUniswapV3Pool",
          "name": "pool",
          "type": "address"
        }
      ],
      "stateMutability": "nonpayable",
      "type": "function"
    },
    {
      "inputs": [
        {
          "internalType": "address",
          "name": "token",
          "type": "address"
        },
        {
          "internalType": "uint256",
          "name": "amountMinimum",
          "type": "uint256"
        },
        {
          "internalType": "address",
          "name": "recipient",
          "type": "address"
        }
      ],
      "name": "sweepToken",
      "outputs": [],
      "stateMutability": "payable",
      "type": "function"
    },
    {
      "inputs": [],
      "name": "symbol",
      "outputs": [
        {
          "internalType": "string",
          "name": "",
          "type": "string"
        }
      ],
      "stateMutability": "view",
      "type": "function"
    },
    {
      "inputs": [],
      "name": "totalSupply",
      "outputs": [
        {
          "internalType": "uint256",
          "name": "",
          "type": "uint256"
        }
      ],
      "stateMutability": "view",
      "type": "function"
    },
    {
      "inputs": [
        {
          "internalType": "address",
          "name": "recipient",
          "type": "address"
        },
        {
          "internalType": "uint256",
          "name": "amount",
          "type": "uint256"
        }
      ],
      "name": "transfer",
      "outputs": [
        {
          "internalType": "bool",
          "name": "",
          "type": "bool"
        }
      ],
      "stateMutability": "nonpayable",
      "type": "function"
    },
    {
      "inputs": [
        {
          "internalType": "address",
          "name": "sender",
          "type": "address"
        },
        {
          "internalType": "address",
          "name": "recipient",
          "type": "address"
        },
        {
          "internalType": "uint256",
          "name": "amount",
          "type": "uint256"
        }
      ],
      "name": "transferFrom",
      "outputs": [
        {
          "internalType": "bool",
          "name": "",
          "type": "bool"
        }
      ],
      "stateMutability": "nonpayable",
      "type": "function"
    },
    {
      "inputs": [],
      "name": "uniswapV3FactoryAddress",
      "outputs": [
        {
          "internalType": "address",
          "name": "",
          "type": "address"
        }
      ],
      "stateMutability": "view",
      "type": "function"
    },
    {
      "inputs": [
        {
          "internalType": "uint256",
          "name": "amount0Owed",
          "type": "uint256"
        },
        {
          "internalType": "uint256",
          "name": "amount1Owed",
          "type": "uint256"
        },
        {
          "internalType": "bytes",
          "name": "data",
          "type": "bytes"
        }
      ],
      "name": "uniswapV3MintCallback",
      "outputs": [],
      "stateMutability": "nonpayable",
      "type": "function"
    },
    {
      "inputs": [
        {
          "internalType": "uint256",
          "name": "amountMinimum",
          "type": "uint256"
        },
        {
          "internalType": "address",
          "name": "recipient",
          "type": "address"
        }
      ],
      "name": "unwrapWETH9",
      "outputs": [],
      "stateMutability": "payable",
      "type": "function"
    },
    {
      "stateMutability": "payable",
      "type": "receive"
    }
  ],
  "bytecode": "0x60e06040523480156200001157600080fd5b506040516200501d3803806200501d8339818101604052810190620000379190620005bf565b8173c02aaa39b223fe8d0a0e5c4f27ead9083c756cc26040518060400160405280601c81526020017f446563656e74204c6162732041737369676e6d656e7420546f6b656e000000008152506040518060400160405280600481526020017f444c4154000000000000000000000000000000000000000000000000000000008152508160039080519060200190620000d1929190620004db565b508060049080519060200190620000ea929190620004db565b506012600560006101000a81548160ff021916908360ff16021790555050508173ffffffffffffffffffffffffffffffffffffffff1660808173ffffffffffffffffffffffffffffffffffffffff1660601b815250508073ffffffffffffffffffffffffffffffffffffffff1660a08173ffffffffffffffffffffffffffffffffffffffff1660601b81525050505033600560016101000a81548173ffffffffffffffffffffffffffffffffffffffff021916908373ffffffffffffffffffffffffffffffffffffffff160217905550620001ee600560019054906101000a900473ffffffffffffffffffffffffffffffffffffffff16846200026f60201b60201c565b81600660006101000a81548173ffffffffffffffffffffffffffffffffffffffff021916908373ffffffffffffffffffffffffffffffffffffffff1602179055508073ffffffffffffffffffffffffffffffffffffffff1660c08173ffffffffffffffffffffffffffffffffffffffff1660601b8152505050505062000687565b600073ffffffffffffffffffffffffffffffffffffffff168273ffffffffffffffffffffffffffffffffffffffff16141562000313576040517f08c379a000000000000000000000000000000000000000000000000000000000815260040180806020018281038252601f8152602001807f45524332303a206d696e7420746f20746865207a65726f20616464726573730081525060200191505060405180910390fd5b62000327600083836200044d60201b60201c565b62000343816002546200045260201b62001a9b1790919060201c565b600281905550620003a1816000808573ffffffffffffffffffffffffffffffffffffffff1673ffffffffffffffffffffffffffffffffffffffff168152602001908152602001600020546200045260201b62001a9b1790919060201c565b6000808473ffffffffffffffffffffffffffffffffffffffff1673ffffffffffffffffffffffffffffffffffffffff168152602001908152602001600020819055508173ffffffffffffffffffffffffffffffffffffffff16600073ffffffffffffffffffffffffffffffffffffffff167fddf252ad1be2c89b69c2b068fc378daa952ba7f163c4a11628f55a4df523b3ef836040518082815260200191505060405180910390a35050565b505050565b600080828401905083811015620004d1576040517f08c379a000000000000000000000000000000000000000000000000000000000815260040180806020018281038252601b8152602001807f536166654d6174683a206164646974696f6e206f766572666c6f77000000000081525060200191505060405180910390fd5b8091505092915050565b828054600181600116156101000203166002900490600052602060002090601f0160209004810192826200051357600085556200055f565b82601f106200052e57805160ff19168380011785556200055f565b828001600101855582156200055f579182015b828111156200055e57825182559160200191906001019062000541565b5b5090506200056e919062000572565b5090565b5b808211156200058d57600081600090555060010162000573565b5090565b600081519050620005a28162000653565b92915050565b600081519050620005b9816200066d565b92915050565b600080600060608486031215620005d557600080fd5b6000620005e586828701620005a8565b9350506020620005f88682870162000591565b92505060406200060b8682870162000591565b9150509250925092565b6000620006228262000629565b9050919050565b600073ffffffffffffffffffffffffffffffffffffffff82169050919050565b6000819050919050565b6200065e8162000615565b81146200066a57600080fd5b50565b620006788162000649565b81146200068457600080fd5b50565b60805160601c60a05160601c60c05160601c61491a62000703600039806108a35280610971528061099c5280610ab65280610d1c5280610d6452806116bc5250806101715280610e765280610fb952806110545280612a905280612af05280612b715250806116e052806118685280612682525061491a6000f3fe60806040526004361061016a5760003560e01c80638b078beb116100d1578063b02c43d01161008a578063c7f9d11511610064578063c7f9d11514610620578063d348799714610660578063dd62ed3e14610689578063df2ab5bb146106c657610232565b8063b02c43d01461058a578063b44a2722146105ca578063c45a0155146105f557610232565b80638b078beb146104685780638da5cb5b1461049157806395d89b41146104bc578063a457c2d7146104e7578063a6f9dae114610524578063a9059cbb1461054d57610232565b8063313ce56711610123578063313ce56714610351578063395093511461037c57806349404b7c146103b95780634aa4a4fc146103d557806370a082311461040057806380f5db8c1461043d57610232565b806306fdde0314610237578063095ea7b31461026257806312210e8a1461029f57806318160ddd146102a957806323b872dd146102d45780632712369a1461031157610232565b36610232577f000000000000000000000000000000000000000000000000000000000000000073ffffffffffffffffffffffffffffffffffffffff163373ffffffffffffffffffffffffffffffffffffffff1614610230576040517f08c379a00000000000000000000000000000000000000000000000000000000081526004018080602001828103825260098152602001807f4e6f74205745544839000000000000000000000000000000000000000000000081525060200191505060405180910390fd5b005b600080fd5b34801561024357600080fd5b5061024c6106e2565b60405161025991906143b4565b60405180910390f35b34801561026e57600080fd5b5061028960048036038101906102849190613be8565b610784565b6040516102969190614363565b60405180910390f35b6102a76107a2565b005b3480156102b557600080fd5b506102be6107b8565b6040516102cb91906144ad565b60405180910390f35b3480156102e057600080fd5b506102fb60048036038101906102f69190613b5d565b6107c2565b6040516103089190614363565b60405180910390f35b34801561031d57600080fd5b5061033860048036038101906103339190613c73565b61089b565b60405161034894939291906144c8565b60405180910390f35b34801561035d57600080fd5b50610366610da8565b604051610373919061450d565b60405180910390f35b34801561038857600080fd5b506103a3600480360381019061039e9190613be8565b610dbf565b6040516103b09190614363565b60405180910390f35b6103d360048036038101906103ce9190613db2565b610e72565b005b3480156103e157600080fd5b506103ea611052565b6040516103f7919061422d565b60405180910390f35b34801561040c57600080fd5b5061042760048036038101906104229190613acf565b611076565b60405161043491906144ad565b60405180910390f35b34801561044957600080fd5b506104526110be565b60405161045f919061422d565b60405180910390f35b34801561047457600080fd5b5061048f600480360381019061048a9190613bac565b6110e4565b005b34801561049d57600080fd5b506104a66112f4565b6040516104b3919061422d565b60405180910390f35b3480156104c857600080fd5b506104d161131a565b6040516104de91906143b4565b60405180910390f35b3480156104f357600080fd5b5061050e60048036038101906105099190613be8565b6113bc565b60405161051b9190614363565b60405180910390f35b34801561053057600080fd5b5061054b60048036038101906105469190613acf565b611489565b005b34801561055957600080fd5b50610574600480360381019061056f9190613be8565b6115f0565b6040516105819190614363565b60405180910390f35b34801561059657600080fd5b506105b160048036038101906105ac9190613d89565b61160e565b6040516105c1949392919061431e565b60405180910390f35b3480156105d657600080fd5b506105df6116ba565b6040516105ec919061437e565b60405180910390f35b34801561060157600080fd5b5061060a6116de565b604051610617919061422d565b60405180910390f35b34801561062c57600080fd5b5061064760048036038101906106429190613c73565b611702565b6040516106579493929190614468565b60405180910390f35b34801561066c57600080fd5b5061068760048036038101906106829190613e8d565b611850565b005b34801561069557600080fd5b506106b060048036038101906106ab9190613b21565b6118dd565b6040516106bd91906144ad565b60405180910390f35b6106e060048036038101906106db9190613c24565b611964565b005b606060038054600181600116156101000203166002900480601f01602080910402602001604051908101604052809291908181526020018280546001816001161561010002031660029004801561077a5780601f1061074f5761010080835404028352916020019161077a565b820191906000526020600020905b81548152906001019060200180831161075d57829003601f168201915b5050505050905090565b6000610798610791611b23565b8484611b2b565b6001905092915050565b60004711156107b6576107b53347611d22565b5b565b6000600254905090565b60006107cf848484611e9e565b610890846107db611b23565b61088b8560405180606001604052806028815260200161484f60289139600160008b73ffffffffffffffffffffffffffffffffffffffff1673ffffffffffffffffffffffffffffffffffffffff1681526020019081526020016000206000610841611b23565b73ffffffffffffffffffffffffffffffffffffffff1673ffffffffffffffffffffffffffffffffffffffff1681526020019081526020016000205461215f9092919063ffffffff16565b611b2b565b600190509392505050565b6000806000807f000000000000000000000000000000000000000000000000000000000000000073ffffffffffffffffffffffffffffffffffffffff166313ead5623089600660149054906101000a900462ffffff166633ebc7c431ab056040518563ffffffff1660e01b8152600401610918949392919061427f565b602060405180830381600087803b15801561093257600080fd5b505af1158015610946573d6000803e3d6000fd5b505050506040513d601f19601f8201168201806040525081019061096a9190613af8565b50610996307f000000000000000000000000000000000000000000000000000000000000000088612219565b6109c1877f000000000000000000000000000000000000000000000000000000000000000087612219565b60006040518061016001604052803073ffffffffffffffffffffffffffffffffffffffff1681526020018973ffffffffffffffffffffffffffffffffffffffff168152602001600660149054906101000a900462ffffff1662ffffff1681526020017ffffffffffffffffffffffffffffffffffffffffffffffffffffffffffff2761860020b81526020017ffffffffffffffffffffffffffffffffffffffffffffffffffffffffffff2761860000360020b815260200188815260200187815260200160008152602001600081526020013073ffffffffffffffffffffffffffffffffffffffff1681526020014281525090507f000000000000000000000000000000000000000000000000000000000000000073ffffffffffffffffffffffffffffffffffffffff166388316456826040518263ffffffff1660e01b8152600401610b0d9190614431565b608060405180830381600087803b158015610b2757600080fd5b505af1158015610b3b573d6000803e3d6000fd5b505050506040513d601f19601f82011682018060405250810190610b5f9190613dee565b8095508196508297508398505050505060405180608001604052803373ffffffffffffffffffffffffffffffffffffffff168152602001856fffffffffffffffffffffffffffffffff1681526020013073ffffffffffffffffffffffffffffffffffffffff1681526020018973ffffffffffffffffffffffffffffffffffffffff168152506007600087815260200190815260200160002060008201518160000160006101000a81548173ffffffffffffffffffffffffffffffffffffffff021916908373ffffffffffffffffffffffffffffffffffffffff16021790555060208201518160010160006101000a8154816fffffffffffffffffffffffffffffffff02191690836fffffffffffffffffffffffffffffffff16021790555060408201518160020160006101000a81548173ffffffffffffffffffffffffffffffffffffffff021916908373ffffffffffffffffffffffffffffffffffffffff16021790555060608201518160030160006101000a81548173ffffffffffffffffffffffffffffffffffffffff021916908373ffffffffffffffffffffffffffffffffffffffff16021790555090505086831015610d5657610d42307f00000000000000000000000000000000000000000000000000000000000000006000612219565b60008388039050610d5430338361241a565b505b85821015610d9e57610d8a887f00000000000000000000000000000000000000000000000000000000000000006000612219565b60008287039050610d9c89338361241a565b505b5093509350935093565b6000600560009054906101000a900460ff16905090565b6000610e68610dcc611b23565b84610e638560016000610ddd611b23565b73ffffffffffffffffffffffffffffffffffffffff1673ffffffffffffffffffffffffffffffffffffffff16815260200190815260200160002060008973ffffffffffffffffffffffffffffffffffffffff1673ffffffffffffffffffffffffffffffffffffffff16815260200190815260200160002054611a9b90919063ffffffff16565b611b2b565b6001905092915050565b60007f000000000000000000000000000000000000000000000000000000000000000073ffffffffffffffffffffffffffffffffffffffff166370a08231306040518263ffffffff1660e01b8152600401808273ffffffffffffffffffffffffffffffffffffffff16815260200191505060206040518083038186803b158015610efb57600080fd5b505afa158015610f0f573d6000803e3d6000fd5b505050506040513d6020811015610f2557600080fd5b8101908080519060200190929190505050905082811015610fae576040517f08c379a00000000000000000000000000000000000000000000000000000000081526004018080602001828103825260128152602001807f496e73756666696369656e74205745544839000000000000000000000000000081525060200191505060405180910390fd5b600081111561104d577f000000000000000000000000000000000000000000000000000000000000000073ffffffffffffffffffffffffffffffffffffffff16632e1a7d4d826040518263ffffffff1660e01b815260040180828152602001915050600060405180830381600087803b15801561102a57600080fd5b505af115801561103e573d6000803e3d6000fd5b5050505061104c8282611d22565b5b505050565b7f000000000000000000000000000000000000000000000000000000000000000081565b60008060008373ffffffffffffffffffffffffffffffffffffffff1673ffffffffffffffffffffffffffffffffffffffff168152602001908152602001600020549050919050565b600660009054906101000a900473ffffffffffffffffffffffffffffffffffffffff1681565b600560019054906101000a900473ffffffffffffffffffffffffffffffffffffffff1673ffffffffffffffffffffffffffffffffffffffff163373ffffffffffffffffffffffffffffffffffffffff1614611174576040517f08c379a000000000000000000000000000000000000000000000000000000000815260040161116b906143f6565b60405180910390fd5b6000600660009054906101000a900473ffffffffffffffffffffffffffffffffffffffff1673ffffffffffffffffffffffffffffffffffffffff1663a16712953085856040518463ffffffff1660e01b81526004016111d593929190614248565b602060405180830381600087803b1580156111ef57600080fd5b505af1158015611203573d6000803e3d6000fd5b505050506040513d601f19601f820116820180604052508101906112279190613af8565b90508073ffffffffffffffffffffffffffffffffffffffff1663f637731d6401000276a36040518263ffffffff1660e01b81526004016112679190614399565b600060405180830381600087803b15801561128157600080fd5b505af1158015611295573d6000803e3d6000fd5b5050505081600660146101000a81548162ffffff021916908362ffffff1602179055507f87d8b330a71d4409400e251d73affac8736c3b5307a5abdb189374943d155fef816040516112e7919061422d565b60405180910390a1505050565b600560019054906101000a900473ffffffffffffffffffffffffffffffffffffffff1681565b606060048054600181600116156101000203166002900480601f0160208091040260200160405190810160405280929190818152602001828054600181600116156101000203166002900480156113b25780601f10611387576101008083540402835291602001916113b2565b820191906000526020600020905b81548152906001019060200180831161139557829003601f168201915b5050505050905090565b600061147f6113c9611b23565b8461147a856040518060600160405280602581526020016148c060259139600160006113f3611b23565b73ffffffffffffffffffffffffffffffffffffffff1673ffffffffffffffffffffffffffffffffffffffff16815260200190815260200160002060008a73ffffffffffffffffffffffffffffffffffffffff1673ffffffffffffffffffffffffffffffffffffffff1681526020019081526020016000205461215f9092919063ffffffff16565b611b2b565b6001905092915050565b600560019054906101000a900473ffffffffffffffffffffffffffffffffffffffff1673ffffffffffffffffffffffffffffffffffffffff163373ffffffffffffffffffffffffffffffffffffffff1614611519576040517f08c379a0000000000000000000000000000000000000000000000000000000008152600401611510906143f6565b60405180910390fd5b600073ffffffffffffffffffffffffffffffffffffffff168173ffffffffffffffffffffffffffffffffffffffff16141561155357600080fd5b80600560016101000a81548173ffffffffffffffffffffffffffffffffffffffff021916908373ffffffffffffffffffffffffffffffffffffffff1602179055507f595ee9ffef04d4d652b768860c56905a48f5ab79124bb3b2279df1885536991d600560019054906101000a900473ffffffffffffffffffffffffffffffffffffffff166040516115e5919061422d565b60405180910390a150565b60006116046115fd611b23565b8484611e9e565b6001905092915050565b60076020528060005260406000206000915090508060000160009054906101000a900473ffffffffffffffffffffffffffffffffffffffff16908060010160009054906101000a90046fffffffffffffffffffffffffffffffff16908060020160009054906101000a900473ffffffffffffffffffffffffffffffffffffffff16908060030160009054906101000a900473ffffffffffffffffffffffffffffffffffffffff16905084565b7f000000000000000000000000000000000000000000000000000000000000000081565b7f000000000000000000000000000000000000000000000000000000000000000081565b60008060008060006040518061014001604052803073ffffffffffffffffffffffffffffffffffffffff1681526020018973ffffffffffffffffffffffffffffffffffffffff168152602001600660149054906101000a900462ffffff1662ffffff1681526020013073ffffffffffffffffffffffffffffffffffffffff1681526020017ffffffffffffffffffffffffffffffffffffffffffffffffffffffffffff2761860020b81526020017ffffffffffffffffffffffffffffffffffffffffffffffffffffffffffff2761860000360020b81526020018881526020018781526020016032815260200161271081525090506117ff8161261b565b809550819650829750839850505050507f1ef345ba02ad1496c570397389519582d89d16cd1503cf72053882fb8c28b52e8560405161183e919061444d565b60405180910390a15093509350935093565b600082828101906118619190613cc2565b90506118917f00000000000000000000000000000000000000000000000000000000000000008260000151612a42565b5060008511156118b4576118b381600001516000015182602001513388612a8e565b5b60008411156118d6576118d581600001516020015182602001513387612a8e565b5b5050505050565b6000600160008473ffffffffffffffffffffffffffffffffffffffff1673ffffffffffffffffffffffffffffffffffffffff16815260200190815260200160002060008373ffffffffffffffffffffffffffffffffffffffff1673ffffffffffffffffffffffffffffffffffffffff16815260200190815260200160002054905092915050565b60008373ffffffffffffffffffffffffffffffffffffffff166370a08231306040518263ffffffff1660e01b8152600401808273ffffffffffffffffffffffffffffffffffffffff16815260200191505060206040518083038186803b1580156119cd57600080fd5b505afa1580156119e1573d6000803e3d6000fd5b505050506040513d60208110156119f757600080fd5b8101908080519060200190929190505050905082811015611a80576040517f08c379a00000000000000000000000000000000000000000000000000000000081526004018080602001828103825260128152602001807f496e73756666696369656e7420746f6b656e000000000000000000000000000081525060200191505060405180910390fd5b6000811115611a9557611a9484838361241a565b5b50505050565b600080828401905083811015611b19576040517f08c379a000000000000000000000000000000000000000000000000000000000815260040180806020018281038252601b8152602001807f536166654d6174683a206164646974696f6e206f766572666c6f77000000000081525060200191505060405180910390fd5b8091505092915050565b600033905090565b600073ffffffffffffffffffffffffffffffffffffffff168373ffffffffffffffffffffffffffffffffffffffff161415611bb1576040517f08c379a000000000000000000000000000000000000000000000000000000000815260040180806020018281038252602481526020018061489c6024913960400191505060405180910390fd5b600073ffffffffffffffffffffffffffffffffffffffff168273ffffffffffffffffffffffffffffffffffffffff161415611c37576040517f08c379a00000000000000000000000000000000000000000000000000000000081526004018080602001828103825260228152602001806148076022913960400191505060405180910390fd5b80600160008573ffffffffffffffffffffffffffffffffffffffff1673ffffffffffffffffffffffffffffffffffffffff16815260200190815260200160002060008473ffffffffffffffffffffffffffffffffffffffff1673ffffffffffffffffffffffffffffffffffffffff168152602001908152602001600020819055508173ffffffffffffffffffffffffffffffffffffffff168373ffffffffffffffffffffffffffffffffffffffff167f8c5be1e5ebec7d5bd14f71427d1e84f3dd0314c0f7b2291e5b200ac8c7c3b925836040518082815260200191505060405180910390a3505050565b60008273ffffffffffffffffffffffffffffffffffffffff1682600067ffffffffffffffff81118015611d5457600080fd5b506040519080825280601f01601f191660200182016040528015611d875781602001600182028036833780820191505090505b506040518082805190602001908083835b60208310611dbb5780518252602082019150602081019050602083039250611d98565b6001836020036101000a03801982511681845116808217855250505050505090500191505060006040518083038185875af1925050503d8060008114611e1d576040519150601f19603f3d011682016040523d82523d6000602084013e611e22565b606091505b5050905080611e99576040517f08c379a00000000000000000000000000000000000000000000000000000000081526004018080602001828103825260038152602001807f535445000000000000000000000000000000000000000000000000000000000081525060200191505060405180910390fd5b505050565b600073ffffffffffffffffffffffffffffffffffffffff168373ffffffffffffffffffffffffffffffffffffffff161415611f24576040517f08c379a00000000000000000000000000000000000000000000000000000000081526004018080602001828103825260258152602001806148776025913960400191505060405180910390fd5b600073ffffffffffffffffffffffffffffffffffffffff168273ffffffffffffffffffffffffffffffffffffffff161415611faa576040517f08c379a00000000000000000000000000000000000000000000000000000000081526004018080602001828103825260238152602001806147e46023913960400191505060405180910390fd5b611fb5838383612c99565b61202081604051806060016040528060268152602001614829602691396000808773ffffffffffffffffffffffffffffffffffffffff1673ffffffffffffffffffffffffffffffffffffffff1681526020019081526020016000205461215f9092919063ffffffff16565b6000808573ffffffffffffffffffffffffffffffffffffffff1673ffffffffffffffffffffffffffffffffffffffff168152602001908152602001600020819055506120b3816000808573ffffffffffffffffffffffffffffffffffffffff1673ffffffffffffffffffffffffffffffffffffffff16815260200190815260200160002054611a9b90919063ffffffff16565b6000808473ffffffffffffffffffffffffffffffffffffffff1673ffffffffffffffffffffffffffffffffffffffff168152602001908152602001600020819055508173ffffffffffffffffffffffffffffffffffffffff168373ffffffffffffffffffffffffffffffffffffffff167fddf252ad1be2c89b69c2b068fc378daa952ba7f163c4a11628f55a4df523b3ef836040518082815260200191505060405180910390a3505050565b600083831115829061220c576040517f08c379a00000000000000000000000000000000000000000000000000000000081526004018080602001828103825283818151815260200191508051906020019080838360005b838110156121d15780820151818401526020810190506121b6565b50505050905090810190601f1680156121fe5780820380516001836020036101000a031916815260200191505b509250505060405180910390fd5b5082840390509392505050565b6000808473ffffffffffffffffffffffffffffffffffffffff1663095ea7b360e01b8585604051602401808373ffffffffffffffffffffffffffffffffffffffff16815260200182815260200192505050604051602081830303815290604052907bffffffffffffffffffffffffffffffffffffffffffffffffffffffff19166020820180517bffffffffffffffffffffffffffffffffffffffffffffffffffffffff83818316178352505050506040518082805190602001908083835b602083106122fa57805182526020820191506020810190506020830392506122d7565b6001836020036101000a0380198251168184511680821785525050505050509050019150506000604051808303816000865af19150503d806000811461235c576040519150601f19603f3d011682016040523d82523d6000602084013e612361565b606091505b50915091508180156123a157506000815114806123a0575080806020019051602081101561238e57600080fd5b81019080805190602001909291905050505b5b612413576040517f08c379a00000000000000000000000000000000000000000000000000000000081526004018080602001828103825260028152602001807f534100000000000000000000000000000000000000000000000000000000000081525060200191505060405180910390fd5b5050505050565b6000808473ffffffffffffffffffffffffffffffffffffffff1663a9059cbb60e01b8585604051602401808373ffffffffffffffffffffffffffffffffffffffff16815260200182815260200192505050604051602081830303815290604052907bffffffffffffffffffffffffffffffffffffffffffffffffffffffff19166020820180517bffffffffffffffffffffffffffffffffffffffffffffffffffffffff83818316178352505050506040518082805190602001908083835b602083106124fb57805182526020820191506020810190506020830392506124d8565b6001836020036101000a0380198251168184511680821785525050505050509050019150506000604051808303816000865af19150503d806000811461255d576040519150601f19603f3d011682016040523d82523d6000602084013e612562565b606091505b50915091508180156125a257506000815114806125a1575080806020019051602081101561258f57600080fd5b81019080805190602001909291905050505b5b612614576040517f08c379a00000000000000000000000000000000000000000000000000000000081526004018080602001828103825260028152602001807f535400000000000000000000000000000000000000000000000000000000000081525060200191505060405180910390fd5b5050505050565b60008060008060006040518060600160405280876000015173ffffffffffffffffffffffffffffffffffffffff168152602001876020015173ffffffffffffffffffffffffffffffffffffffff168152602001876040015162ffffff1681525090506126a77f000000000000000000000000000000000000000000000000000000000000000082612c9e565b915060008273ffffffffffffffffffffffffffffffffffffffff16633850c7bd6040518163ffffffff1660e01b815260040160e06040518083038186803b1580156126f157600080fd5b505afa158015612705573d6000803e3d6000fd5b505050506040513d601f19601f820116820180604052508101906127299190613ceb565b505050505050905060006127408860800151612df9565b905060006127518960a00151612df9565b90506127a86040518060400160405280600e81526020017f7371727450726963655839363a200000000000000000000000000000000000008152508473ffffffffffffffffffffffffffffffffffffffff16613234565b6127fd6040518060400160405280600f81526020017f737172745072696365415839363a2000000000000000000000000000000000008152508373ffffffffffffffffffffffffffffffffffffffff16613234565b6128526040518060400160405280600f81526020017f737172745072696365425839363a2000000000000000000000000000000000008152508273ffffffffffffffffffffffffffffffffffffffff16613234565b6128956040518060400160405280600a81526020017f616d6f756e7473303a20000000000000000000000000000000000000000000008152508a60c00151613234565b6128d86040518060400160405280600a81526020017f616d6f756e7473313a20000000000000000000000000000000000000000000008152508a60e00151613234565b6128ed8383838c60c001518d60e0015161333b565b97505050508173ffffffffffffffffffffffffffffffffffffffff16633c8a7d8d876060015188608001518960a001518960405180604001604052808881526020013373ffffffffffffffffffffffffffffffffffffffff168152506040516020016129599190614416565b6040516020818303038152906040526040518663ffffffff1660e01b81526004016129889594939291906142c4565b6040805180830381600087803b1580156129a157600080fd5b505af11580156129b5573d6000803e3d6000fd5b505050506040513d601f19601f820116820180604052508101906129d99190613e51565b809450819550505085610100015184101580156129fb57508561012001518310155b612a3a576040517f08c379a0000000000000000000000000000000000000000000000000000000008152600401612a31906143d6565b60405180910390fd5b509193509193565b6000612a4e8383612c9e565b90508073ffffffffffffffffffffffffffffffffffffffff163373ffffffffffffffffffffffffffffffffffffffff1614612a8857600080fd5b92915050565b7f000000000000000000000000000000000000000000000000000000000000000073ffffffffffffffffffffffffffffffffffffffff168473ffffffffffffffffffffffffffffffffffffffff16148015612ae95750804710155b15612c41577f000000000000000000000000000000000000000000000000000000000000000073ffffffffffffffffffffffffffffffffffffffff1663d0e30db0826040518263ffffffff1660e01b81526004016000604051808303818588803b158015612b5657600080fd5b505af1158015612b6a573d6000803e3d6000fd5b50505050507f000000000000000000000000000000000000000000000000000000000000000073ffffffffffffffffffffffffffffffffffffffff1663a9059cbb83836040518363ffffffff1660e01b8152600401808373ffffffffffffffffffffffffffffffffffffffff16815260200182815260200192505050602060405180830381600087803b158015612c0057600080fd5b505af1158015612c14573d6000803e3d6000fd5b505050506040513d6020811015612c2a57600080fd5b810190808051906020019092919050505050612c93565b3073ffffffffffffffffffffffffffffffffffffffff168373ffffffffffffffffffffffffffffffffffffffff161415612c8557612c8084838361241a565b612c92565b612c9184848484613467565b5b5b50505050565b505050565b6000816020015173ffffffffffffffffffffffffffffffffffffffff16826000015173ffffffffffffffffffffffffffffffffffffffff1610612ce057600080fd5b82826000015183602001518460400151604051602001808473ffffffffffffffffffffffffffffffffffffffff1681526020018373ffffffffffffffffffffffffffffffffffffffff1681526020018262ffffff1681526020019350505050604051602081830303815290604052805190602001207fe34f199b19b2b4f47f68442619d555527d244f78a3297ea89325f843f87b8b5460001b60405160200180807fff000000000000000000000000000000000000000000000000000000000000008152506001018473ffffffffffffffffffffffffffffffffffffffff1660601b815260140183815260200182815260200193505050506040516020818303038152906040528051906020012060001c905092915050565b60008060008360020b12612e10578260020b612e18565b8260020b6000035b90507ffffffffffffffffffffffffffffffffffffffffffffffffffffffffffff2761860000360020b811115612eb6576040517f08c379a00000000000000000000000000000000000000000000000000000000081526004018080602001828103825260018152602001807f540000000000000000000000000000000000000000000000000000000000000081525060200191505060405180910390fd5b600080600183161415612eda57700100000000000000000000000000000000612eec565b6ffffcb933bd6fad37aa2d162d1a5940015b70ffffffffffffffffffffffffffffffffff16905060006002831614612f265760806ffff97272373d413259a46990580e213a8202901c90505b60006004831614612f4b5760806ffff2e50f5f656932ef12357cf3c7fdcc8202901c90505b60006008831614612f705760806fffe5caca7e10e4e61c3624eaa0941cd08202901c90505b60006010831614612f955760806fffcb9843d60f6159c9db58835c9266448202901c90505b60006020831614612fba5760806fff973b41fa98c081472e6896dfb254c08202901c90505b60006040831614612fdf5760806fff2ea16466c96a3843ec78b326b528618202901c90505b600060808316146130045760806ffe5dee046a99a2a811c461f1969c30538202901c90505b600061010083161461302a5760806ffcbe86c7900a88aedcffc83b479aa3a48202901c90505b60006102008316146130505760806ff987a7253ac413176f2b074cf7815e548202901c90505b60006104008316146130765760806ff3392b0822b70005940c7a398e4b70f38202901c90505b600061080083161461309c5760806fe7159475a2c29b7443b29c7fa6e889d98202901c90505b60006110008316146130c25760806fd097f3bdfd2022b8845ad8f792aa58258202901c90505b60006120008316146130e85760806fa9f746462d870fdf8a65dc1f90e061e58202901c90505b600061400083161461310e5760806f70d869a156d2a1b890bb3df62baf32f78202901c90505b60006180008316146131345760806f31be135f97d08fd981231505542fcfa68202901c90505b60006201000083161461315b5760806f09aa508b5b7a84e1c677de54f3e99bc98202901c90505b6000620200008316146131815760806e5d6af8dedb81196699c329225ee6048202901c90505b6000620400008316146131a65760806d2216e584f5fa1ea926041bedfe988202901c90505b6000620800008316146131c95760806b048a170391f7dc42444e8fa28202901c90505b60008460020b131561320257807fffffffffffffffffffffffffffffffffffffffffffffffffffffffffffffffff816131fe57fe5b0490505b6000640100000000828161321257fe5b061461321f576001613222565b60005b60ff16602082901c0192505050919050565b61333782826040516024018080602001838152602001828103825284818151815260200191508051906020019080838360005b83811015613282578082015181840152602081019050613267565b50505050905090810190601f1680156132af5780820380516001836020036101000a031916815260200191505b5093505050506040516020818303038152906040527f9710a9d0000000000000000000000000000000000000000000000000000000007bffffffffffffffffffffffffffffffffffffffffffffffffffffffff19166020820180517bffffffffffffffffffffffffffffffffffffffffffffffffffffffff8381831617835250505050613687565b5050565b60008373ffffffffffffffffffffffffffffffffffffffff168573ffffffffffffffffffffffffffffffffffffffff16111561337c57838580955081965050505b8473ffffffffffffffffffffffffffffffffffffffff168673ffffffffffffffffffffffffffffffffffffffff16116133c1576133ba8585856136b0565b905061345e565b8373ffffffffffffffffffffffffffffffffffffffff168673ffffffffffffffffffffffffffffffffffffffff16101561344f5760006134028786866136b0565b9050600061341187898661376e565b9050806fffffffffffffffffffffffffffffffff16826fffffffffffffffffffffffffffffffff16106134445780613446565b815b9250505061345d565b61345a85858461376e565b90505b5b95945050505050565b6000808573ffffffffffffffffffffffffffffffffffffffff166323b872dd60e01b868686604051602401808473ffffffffffffffffffffffffffffffffffffffff1681526020018373ffffffffffffffffffffffffffffffffffffffff1681526020018281526020019350505050604051602081830303815290604052907bffffffffffffffffffffffffffffffffffffffffffffffffffffffff19166020820180517bffffffffffffffffffffffffffffffffffffffffffffffffffffffff83818316178352505050506040518082805190602001908083835b602083106135665780518252602082019150602081019050602083039250613543565b6001836020036101000a0380198251168184511680821785525050505050509050019150506000604051808303816000865af19150503d80600081146135c8576040519150601f19603f3d011682016040523d82523d6000602084013e6135cd565b606091505b509150915081801561360d575060008151148061360c57508080602001905160208110156135fa57600080fd5b81019080805190602001909291905050505b5b61367f576040517f08c379a00000000000000000000000000000000000000000000000000000000081526004018080602001828103825260038152602001807f535446000000000000000000000000000000000000000000000000000000000081525060200191505060405180910390fd5b505050505050565b60008151905060006a636f6e736f6c652e6c6f679050602083016000808483855afa5050505050565b60008273ffffffffffffffffffffffffffffffffffffffff168473ffffffffffffffffffffffffffffffffffffffff1611156136f157828480945081955050505b60006137378573ffffffffffffffffffffffffffffffffffffffff168573ffffffffffffffffffffffffffffffffffffffff166c010000000000000000000000006137f0565b905061376461375f848388880373ffffffffffffffffffffffffffffffffffffffff166137f0565b6138ca565b9150509392505050565b60008273ffffffffffffffffffffffffffffffffffffffff168473ffffffffffffffffffffffffffffffffffffffff1611156137af57828480945081955050505b6137e76137e2836c0100000000000000000000000087870373ffffffffffffffffffffffffffffffffffffffff166137f0565b6138ca565b90509392505050565b60008060008019858709858702925082811083820303915050600081141561382b576000841161381f57600080fd5b838204925050506138c3565b80841161383757600080fd5b600084868809905082811182039150808303925060008586600003169050808604955080840493506001818260000304019050808302841793506000600287600302189050808702600203810290508087026002038102905080870260020381029050808702600203810290508087026002038102905080870260020381029050808502955050505050505b9392505050565b600081829150816fffffffffffffffffffffffffffffffff16146138ed57600080fd5b919050565b60008135905061390181614714565b92915050565b60008151905061391681614714565b92915050565b60008151905061392b8161472b565b92915050565b60008083601f84011261394357600080fd5b8235905067ffffffffffffffff81111561395c57600080fd5b60208301915083600182028301111561397457600080fd5b9250929050565b60008151905061398a81614742565b92915050565b6000608082840312156139a257600080fd5b6139ac6040614528565b905060006139bc848285016139dc565b60008301525060606139d0848285016138f2565b60208301525092915050565b6000606082840312156139ee57600080fd5b6139f86060614528565b90506000613a08848285016138f2565b6000830152506020613a1c848285016138f2565b6020830152506040613a3084828501613a7b565b60408301525092915050565b600081519050613a4b81614759565b92915050565b600081519050613a6081614787565b92915050565b600081519050613a7581614770565b92915050565b600081359050613a8a8161479e565b92915050565b600081359050613a9f816147b5565b92915050565b600081519050613ab4816147b5565b92915050565b600081519050613ac9816147cc565b92915050565b600060208284031215613ae157600080fd5b6000613aef848285016138f2565b91505092915050565b600060208284031215613b0a57600080fd5b6000613b1884828501613907565b91505092915050565b60008060408385031215613b3457600080fd5b6000613b42858286016138f2565b9250506020613b53858286016138f2565b9150509250929050565b600080600060608486031215613b7257600080fd5b6000613b80868287016138f2565b9350506020613b91868287016138f2565b9250506040613ba286828701613a90565b9150509250925092565b60008060408385031215613bbf57600080fd5b6000613bcd858286016138f2565b9250506020613bde85828601613a7b565b9150509250929050565b60008060408385031215613bfb57600080fd5b6000613c09858286016138f2565b9250506020613c1a85828601613a90565b9150509250929050565b600080600060608486031215613c3957600080fd5b6000613c47868287016138f2565b9350506020613c5886828701613a90565b9250506040613c69868287016138f2565b9150509250925092565b600080600060608486031215613c8857600080fd5b6000613c96868287016138f2565b9350506020613ca786828701613a90565b9250506040613cb886828701613a90565b9150509250925092565b600060808284031215613cd457600080fd5b6000613ce284828501613990565b91505092915050565b600080600080600080600060e0888a031215613d0657600080fd5b6000613d148a828b01613a51565b9750506020613d258a828b0161397b565b9650506040613d368a828b01613a66565b9550506060613d478a828b01613a66565b9450506080613d588a828b01613a66565b93505060a0613d698a828b01613aba565b92505060c0613d7a8a828b0161391c565b91505092959891949750929550565b600060208284031215613d9b57600080fd5b6000613da984828501613a90565b91505092915050565b60008060408385031215613dc557600080fd5b6000613dd385828601613a90565b9250506020613de4858286016138f2565b9150509250929050565b60008060008060808587031215613e0457600080fd5b6000613e1287828801613aa5565b9450506020613e2387828801613a3c565b9350506040613e3487828801613aa5565b9250506060613e4587828801613aa5565b91505092959194509250565b60008060408385031215613e6457600080fd5b6000613e7285828601613aa5565b9250506020613e8385828601613aa5565b9150509250929050565b60008060008060608587031215613ea357600080fd5b6000613eb187828801613a90565b9450506020613ec287828801613a90565b935050604085013567ffffffffffffffff811115613edf57600080fd5b613eeb87828801613931565b925092505092959194509250565b613f028161462c565b82525050565b613f1181614591565b82525050565b613f2081614591565b82525050565b613f2f816145a3565b82525050565b6000613f4082614559565b613f4a818561456f565b9350613f5a8185602086016146ce565b613f6381614703565b840191505092915050565b613f778161463e565b82525050565b613f8681614662565b82525050565b613f95816145af565b82525050565b613fa4816145af565b82525050565b613fb381614686565b82525050565b613fc281614698565b82525050565b6000613fd382614564565b613fdd8185614580565b9350613fed8185602086016146ce565b613ff681614703565b840191505092915050565b600061400e601483614580565b91507f507269636520736c69707061676520636865636b0000000000000000000000006000830152602082019050919050565b600061404e601d83614580565b91507f54686973206973206e6f74206f776e6572206f6620636f6e74726163740000006000830152602082019050919050565b6080820160008201516140976000850182614191565b5060208201516140aa6060850182613f08565b50505050565b610160820160008201516140c76000850182613f08565b5060208201516140da6020850182613f08565b5060408201516140ed60408501826141e2565b5060608201516141006060850182613f8c565b5060808201516141136080850182613f8c565b5060a082015161412660a0850182614200565b5060c082015161413960c0850182614200565b5060e082015161414c60e0850182614200565b50610100820151614161610100850182614200565b50610120820151614176610120850182613f08565b5061014082015161418b610140850182614200565b50505050565b6060820160008201516141a76000850182613f08565b5060208201516141ba6020850182613f08565b5060408201516141cd60408501826141e2565b50505050565b6141dc816145bc565b82525050565b6141eb81614606565b82525050565b6141fa81614606565b82525050565b61420981614615565b82525050565b61421881614615565b82525050565b6142278161461f565b82525050565b60006020820190506142426000830184613f17565b92915050565b600060608201905061425d6000830186613ef9565b61426a6020830185613f17565b61427760408301846141f1565b949350505050565b60006080820190506142946000830187613ef9565b6142a16020830186613f17565b6142ae60408301856141f1565b6142bb6060830184613faa565b95945050505050565b600060a0820190506142d96000830188613f17565b6142e66020830187613f9b565b6142f36040830186613f9b565b61430060608301856141d3565b81810360808301526143128184613f35565b90509695505050505050565b60006080820190506143336000830187613f17565b61434060208301866141d3565b61434d6040830185613f17565b61435a6060830184613f17565b95945050505050565b60006020820190506143786000830184613f26565b92915050565b60006020820190506143936000830184613f6e565b92915050565b60006020820190506143ae6000830184613fb9565b92915050565b600060208201905081810360008301526143ce8184613fc8565b905092915050565b600060208201905081810360008301526143ef81614001565b9050919050565b6000602082019050818103600083015261440f81614041565b9050919050565b600060808201905061442b6000830184614081565b92915050565b60006101608201905061444760008301846140b0565b92915050565b600060208201905061446260008301846141d3565b92915050565b600060808201905061447d60008301876141d3565b61448a602083018661420f565b614497604083018561420f565b6144a46060830184613f7d565b95945050505050565b60006020820190506144c2600083018461420f565b92915050565b60006080820190506144dd600083018761420f565b6144ea60208301866141d3565b6144f7604083018561420f565b614504606083018461420f565b95945050505050565b6000602082019050614522600083018461421e565b92915050565b6000604051905081810181811067ffffffffffffffff8211171561454f5761454e614701565b5b8060405250919050565b600081519050919050565b600081519050919050565b600082825260208201905092915050565b600082825260208201905092915050565b600061459c826145e6565b9050919050565b60008115159050919050565b60008160020b9050919050565b60006fffffffffffffffffffffffffffffffff82169050919050565b600061ffff82169050919050565b600073ffffffffffffffffffffffffffffffffffffffff82169050919050565b600062ffffff82169050919050565b6000819050919050565b600060ff82169050919050565b6000614637826146aa565b9050919050565b600061464982614650565b9050919050565b600061465b826145e6565b9050919050565b600061466d82614674565b9050919050565b600061467f826145e6565b9050919050565b6000614691826145e6565b9050919050565b60006146a3826145e6565b9050919050565b60006146b5826146bc565b9050919050565b60006146c7826145e6565b9050919050565b60005b838110156146ec5780820151818401526020810190506146d1565b838111156146fb576000848401525b50505050565bfe5b6000601f19601f8301169050919050565b61471d81614591565b811461472857600080fd5b50565b614734816145a3565b811461473f57600080fd5b50565b61474b816145af565b811461475657600080fd5b50565b614762816145bc565b811461476d57600080fd5b50565b614779816145d8565b811461478457600080fd5b50565b614790816145e6565b811461479b57600080fd5b50565b6147a781614606565b81146147b257600080fd5b50565b6147be81614615565b81146147c957600080fd5b50565b6147d58161461f565b81146147e057600080fd5b5056fe45524332303a207472616e7366657220746f20746865207a65726f206164647265737345524332303a20617070726f766520746f20746865207a65726f206164647265737345524332303a207472616e7366657220616d6f756e7420657863656564732062616c616e636545524332303a207472616e7366657220616d6f756e74206578636565647320616c6c6f77616e636545524332303a207472616e736665722066726f6d20746865207a65726f206164647265737345524332303a20617070726f76652066726f6d20746865207a65726f206164647265737345524332303a2064656372656173656420616c6c6f77616e63652062656c6f77207a65726fa26469706673582212207a38e3dffdf47618bfe5979196c146509d30c2cf0a878589a5fb7794f5f2b8bf64736f6c63430007060033",
  "linkReferences": {},
  "deployedLinkReferences": {}
}