{
  "_format": "hh-sol-artifact-1",
  "contractName": "Token",
  "sourceName": "contracts/Token.sol",
  "abi": [
    {
      "inputs": [
        {
          "internalType": "uint256",
          "name": "totalSupply",
          "type": "uint256"
        },
        {
          "internalType": "address",
          "name": "factoryAddress",
          "type": "address"
        },
        {
          "internalType": "address",
          "name": "_nonfungiblePositionManager",
          "type": "address"
        }
      ],
      "stateMutability": "nonpayable",
      "type": "constructor"
    },
    {
      "anonymous": false,
      "inputs": [
        {
          "indexed": false,
          "internalType": "uint128",
          "name": "liquidity",
          "type": "uint128"
        }
      ],
      "name": "AddedLiquidity",
      "type": "event"
    },
    {
      "anonymous": false,
      "inputs": [
        {
          "indexed": true,
          "internalType": "address",
          "name": "owner",
          "type": "address"
        },
        {
          "indexed": true,
          "internalType": "address",
          "name": "spender",
          "type": "address"
        },
        {
          "indexed": false,
          "internalType": "uint256",
          "name": "value",
          "type": "uint256"
        }
      ],
      "name": "Approval",
      "type": "event"
    },
    {
      "anonymous": false,
      "inputs": [
        {
          "indexed": false,
          "internalType": "address",
          "name": "owner",
          "type": "address"
        }
      ],
      "name": "OwnershipChanged",
      "type": "event"
    },
    {
      "anonymous": false,
      "inputs": [
        {
          "indexed": false,
          "internalType": "address",
          "name": "pool",
          "type": "address"
        }
      ],
      "name": "PoolSuccessfullyCreated",
      "type": "event"
    },
    {
      "anonymous": false,
      "inputs": [
        {
          "indexed": true,
          "internalType": "address",
          "name": "from",
          "type": "address"
        },
        {
          "indexed": true,
          "internalType": "address",
          "name": "to",
          "type": "address"
        },
        {
          "indexed": false,
          "internalType": "uint256",
          "name": "value",
          "type": "uint256"
        }
      ],
      "name": "Transfer",
      "type": "event"
    },
    {
      "inputs": [],
      "name": "WETH9",
      "outputs": [
        {
          "internalType": "address",
          "name": "",
          "type": "address"
        }
      ],
      "stateMutability": "view",
      "type": "function"
    },
    {
      "inputs": [
        {
          "internalType": "address",
          "name": "owner",
          "type": "address"
        },
        {
          "internalType": "address",
          "name": "spender",
          "type": "address"
        }
      ],
      "name": "allowance",
      "outputs": [
        {
          "internalType": "uint256",
          "name": "",
          "type": "uint256"
        }
      ],
      "stateMutability": "view",
      "type": "function"
    },
    {
      "inputs": [
        {
          "internalType": "address",
          "name": "spender",
          "type": "address"
        },
        {
          "internalType": "uint256",
          "name": "amount",
          "type": "uint256"
        }
      ],
      "name": "approve",
      "outputs": [
        {
          "internalType": "bool",
          "name": "",
          "type": "bool"
        }
      ],
      "stateMutability": "nonpayable",
      "type": "function"
    },
    {
      "inputs": [
        {
          "internalType": "address",
          "name": "account",
          "type": "address"
        }
      ],
      "name": "balanceOf",
      "outputs": [
        {
          "internalType": "uint256",
          "name": "",
          "type": "uint256"
        }
      ],
      "stateMutability": "view",
      "type": "function"
    },
    {
      "inputs": [
        {
          "internalType": "address",
          "name": "newOwner",
          "type": "address"
        }
      ],
      "name": "changeOwner",
      "outputs": [],
      "stateMutability": "nonpayable",
      "type": "function"
    },
    {
      "inputs": [
        {
          "internalType": "address",
          "name": "tokenB",
          "type": "address"
        },
        {
          "internalType": "uint24",
          "name": "fee",
          "type": "uint24"
        }
      ],
      "name": "createPool",
      "outputs": [],
      "stateMutability": "nonpayable",
      "type": "function"
    },
    {
      "inputs": [],
      "name": "decimals",
      "outputs": [
        {
          "internalType": "uint8",
          "name": "",
          "type": "uint8"
        }
      ],
      "stateMutability": "view",
      "type": "function"
    },
    {
      "inputs": [
        {
          "internalType": "address",
          "name": "spender",
          "type": "address"
        },
        {
          "internalType": "uint256",
          "name": "subtractedValue",
          "type": "uint256"
        }
      ],
      "name": "decreaseAllowance",
      "outputs": [
        {
          "internalType": "bool",
          "name": "",
          "type": "bool"
        }
      ],
      "stateMutability": "nonpayable",
      "type": "function"
    },
    {
      "inputs": [
        {
          "internalType": "uint256",
          "name": "",
          "type": "uint256"
        }
      ],
      "name": "deposits",
      "outputs": [
        {
          "internalType": "address",
          "name": "owner",
          "type": "address"
        },
        {
          "internalType": "uint128",
          "name": "liquidity",
          "type": "uint128"
        },
        {
          "internalType": "address",
          "name": "token0",
          "type": "address"
        },
        {
          "internalType": "address",
          "name": "token1",
          "type": "address"
        }
      ],
      "stateMutability": "view",
      "type": "function"
    },
    {
      "inputs": [],
      "name": "factory",
      "outputs": [
        {
          "internalType": "address",
          "name": "",
          "type": "address"
        }
      ],
      "stateMutability": "view",
      "type": "function"
    },
    {
      "inputs": [
        {
          "internalType": "address",
          "name": "spender",
          "type": "address"
        },
        {
          "internalType": "uint256",
          "name": "addedValue",
          "type": "uint256"
        }
      ],
      "name": "increaseAllowance",
      "outputs": [
        {
          "internalType": "bool",
          "name": "",
          "type": "bool"
        }
      ],
      "stateMutability": "nonpayable",
      "type": "function"
    },
    {
      "inputs": [
        {
          "internalType": "address",
          "name": "_token1",
          "type": "address"
        },
        {
          "internalType": "uint256",
          "name": "amount0ToMint",
          "type": "uint256"
        },
        {
          "internalType": "uint256",
          "name": "amount1ToMint",
          "type": "uint256"
        }
      ],
      "name": "mintPosition",
      "outputs": [
        {
          "internalType": "uint256",
          "name": "tokenId",
          "type": "uint256"
        },
        {
          "internalType": "uint128",
          "name": "liquidity",
          "type": "uint128"
        },
        {
          "internalType": "uint256",
          "name": "amount0",
          "type": "uint256"
        },
        {
          "internalType": "uint256",
          "name": "amount1",
          "type": "uint256"
        }
      ],
      "stateMutability": "nonpayable",
      "type": "function"
    },
    {
      "inputs": [],
      "name": "name",
      "outputs": [
        {
          "internalType": "string",
          "name": "",
          "type": "string"
        }
      ],
      "stateMutability": "view",
      "type": "function"
    },
    {
      "inputs": [],
      "name": "nonfungiblePositionManager",
      "outputs": [
        {
          "internalType": "contract INonfungiblePositionManager",
          "name": "",
          "type": "address"
        }
      ],
      "stateMutability": "view",
      "type": "function"
    },
    {
      "inputs": [],
      "name": "owner",
      "outputs": [
        {
          "internalType": "address",
          "name": "",
          "type": "address"
        }
      ],
      "stateMutability": "view",
      "type": "function"
    },
    {
      "inputs": [],
      "name": "refundETH",
      "outputs": [],
      "stateMutability": "payable",
      "type": "function"
    },
    {
      "inputs": [
        {
          "internalType": "address",
          "name": "_token1",
          "type": "address"
        },
        {
          "internalType": "uint256",
          "name": "amount0ToMint",
          "type": "uint256"
        },
        {
          "internalType": "uint256",
          "name": "amount1ToMint",
          "type": "uint256"
        }
      ],
      "name": "seedLiquidity",
      "outputs": [
        {
          "internalType": "uint128",
          "name": "liquidity",
          "type": "uint128"
        },
        {
          "internalType": "uint256",
          "name": "amount0",
          "type": "uint256"
        },
        {
          "internalType": "uint256",
          "name": "amount1",
          "type": "uint256"
        },
        {
          "internalType": "contract IUniswapV3Pool",
          "name": "pool",
          "type": "address"
        }
      ],
      "stateMutability": "nonpayable",
      "type": "function"
    },
    {
      "inputs": [
        {
          "internalType": "address",
          "name": "token",
          "type": "address"
        },
        {
          "internalType": "uint256",
          "name": "amountMinimum",
          "type": "uint256"
        },
        {
          "internalType": "address",
          "name": "recipient",
          "type": "address"
        }
      ],
      "name": "sweepToken",
      "outputs": [],
      "stateMutability": "payable",
      "type": "function"
    },
    {
      "inputs": [],
      "name": "symbol",
      "outputs": [
        {
          "internalType": "string",
          "name": "",
          "type": "string"
        }
      ],
      "stateMutability": "view",
      "type": "function"
    },
    {
      "inputs": [],
      "name": "totalSupply",
      "outputs": [
        {
          "internalType": "uint256",
          "name": "",
          "type": "uint256"
        }
      ],
      "stateMutability": "view",
      "type": "function"
    },
    {
      "inputs": [
        {
          "internalType": "address",
          "name": "recipient",
          "type": "address"
        },
        {
          "internalType": "uint256",
          "name": "amount",
          "type": "uint256"
        }
      ],
      "name": "transfer",
      "outputs": [
        {
          "internalType": "bool",
          "name": "",
          "type": "bool"
        }
      ],
      "stateMutability": "nonpayable",
      "type": "function"
    },
    {
      "inputs": [
        {
          "internalType": "address",
          "name": "sender",
          "type": "address"
        },
        {
          "internalType": "address",
          "name": "recipient",
          "type": "address"
        },
        {
          "internalType": "uint256",
          "name": "amount",
          "type": "uint256"
        }
      ],
      "name": "transferFrom",
      "outputs": [
        {
          "internalType": "bool",
          "name": "",
          "type": "bool"
        }
      ],
      "stateMutability": "nonpayable",
      "type": "function"
    },
    {
      "inputs": [],
      "name": "uniswapV3FactoryAddress",
      "outputs": [
        {
          "internalType": "address",
          "name": "",
          "type": "address"
        }
      ],
      "stateMutability": "view",
      "type": "function"
    },
    {
      "inputs": [
        {
          "internalType": "uint256",
          "name": "amount0Owed",
          "type": "uint256"
        },
        {
          "internalType": "uint256",
          "name": "amount1Owed",
          "type": "uint256"
        },
        {
          "internalType": "bytes",
          "name": "data",
          "type": "bytes"
        }
      ],
      "name": "uniswapV3MintCallback",
      "outputs": [],
      "stateMutability": "nonpayable",
      "type": "function"
    },
    {
      "inputs": [
        {
          "internalType": "uint256",
          "name": "amountMinimum",
          "type": "uint256"
        },
        {
          "internalType": "address",
          "name": "recipient",
          "type": "address"
        }
      ],
      "name": "unwrapWETH9",
      "outputs": [],
      "stateMutability": "payable",
      "type": "function"
    },
    {
      "stateMutability": "payable",
      "type": "receive"
    }
  ],
  "bytecode": "0x60e06040523480156200001157600080fd5b50604051620050f5380380620050f58339818101604052810190620000379190620005bf565b8173c02aaa39b223fe8d0a0e5c4f27ead9083c756cc26040518060400160405280601c81526020017f446563656e74204c6162732041737369676e6d656e7420546f6b656e000000008152506040518060400160405280600481526020017f444c4154000000000000000000000000000000000000000000000000000000008152508160039080519060200190620000d1929190620004db565b508060049080519060200190620000ea929190620004db565b506012600560006101000a81548160ff021916908360ff16021790555050508173ffffffffffffffffffffffffffffffffffffffff1660808173ffffffffffffffffffffffffffffffffffffffff1660601b815250508073ffffffffffffffffffffffffffffffffffffffff1660a08173ffffffffffffffffffffffffffffffffffffffff1660601b81525050505033600560016101000a81548173ffffffffffffffffffffffffffffffffffffffff021916908373ffffffffffffffffffffffffffffffffffffffff160217905550620001ee600560019054906101000a900473ffffffffffffffffffffffffffffffffffffffff16846200026f60201b60201c565b81600660006101000a81548173ffffffffffffffffffffffffffffffffffffffff021916908373ffffffffffffffffffffffffffffffffffffffff1602179055508073ffffffffffffffffffffffffffffffffffffffff1660c08173ffffffffffffffffffffffffffffffffffffffff1660601b8152505050505062000687565b600073ffffffffffffffffffffffffffffffffffffffff168273ffffffffffffffffffffffffffffffffffffffff16141562000313576040517f08c379a000000000000000000000000000000000000000000000000000000000815260040180806020018281038252601f8152602001807f45524332303a206d696e7420746f20746865207a65726f20616464726573730081525060200191505060405180910390fd5b62000327600083836200044d60201b60201c565b62000343816002546200045260201b62001aa11790919060201c565b600281905550620003a1816000808573ffffffffffffffffffffffffffffffffffffffff1673ffffffffffffffffffffffffffffffffffffffff168152602001908152602001600020546200045260201b62001aa11790919060201c565b6000808473ffffffffffffffffffffffffffffffffffffffff1673ffffffffffffffffffffffffffffffffffffffff168152602001908152602001600020819055508173ffffffffffffffffffffffffffffffffffffffff16600073ffffffffffffffffffffffffffffffffffffffff167fddf252ad1be2c89b69c2b068fc378daa952ba7f163c4a11628f55a4df523b3ef836040518082815260200191505060405180910390a35050565b505050565b600080828401905083811015620004d1576040517f08c379a000000000000000000000000000000000000000000000000000000000815260040180806020018281038252601b8152602001807f536166654d6174683a206164646974696f6e206f766572666c6f77000000000081525060200191505060405180910390fd5b8091505092915050565b828054600181600116156101000203166002900490600052602060002090601f0160209004810192826200051357600085556200055f565b82601f106200052e57805160ff19168380011785556200055f565b828001600101855582156200055f579182015b828111156200055e57825182559160200191906001019062000541565b5b5090506200056e919062000572565b5090565b5b808211156200058d57600081600090555060010162000573565b5090565b600081519050620005a28162000653565b92915050565b600081519050620005b9816200066d565b92915050565b600080600060608486031215620005d557600080fd5b6000620005e586828701620005a8565b9350506020620005f88682870162000591565b92505060406200060b8682870162000591565b9150509250925092565b6000620006228262000629565b9050919050565b600073ffffffffffffffffffffffffffffffffffffffff82169050919050565b6000819050919050565b6200065e8162000615565b81146200066a57600080fd5b50565b620006788162000649565b81146200068457600080fd5b50565b60805160601c60a05160601c60c05160601c6149f262000703600039806108a35280610971528061099c5280610ab65280610d1c5280610d6452806116c25250806101715280610e765280610fb952806110545280612a585280612ab85280612b395250806116e6528061186e528061268852506149f26000f3fe60806040526004361061016a5760003560e01c80638b078beb116100d1578063b02c43d01161008a578063c7f9d11511610064578063c7f9d11514610620578063d348799714610660578063dd62ed3e14610689578063df2ab5bb146106c657610232565b8063b02c43d01461058a578063b44a2722146105ca578063c45a0155146105f557610232565b80638b078beb146104685780638da5cb5b1461049157806395d89b41146104bc578063a457c2d7146104e7578063a6f9dae114610524578063a9059cbb1461054d57610232565b8063313ce56711610123578063313ce56714610351578063395093511461037c57806349404b7c146103b95780634aa4a4fc146103d557806370a082311461040057806380f5db8c1461043d57610232565b806306fdde0314610237578063095ea7b31461026257806312210e8a1461029f57806318160ddd146102a957806323b872dd146102d45780632712369a1461031157610232565b36610232577f000000000000000000000000000000000000000000000000000000000000000073ffffffffffffffffffffffffffffffffffffffff163373ffffffffffffffffffffffffffffffffffffffff1614610230576040517f08c379a00000000000000000000000000000000000000000000000000000000081526004018080602001828103825260098152602001807f4e6f74205745544839000000000000000000000000000000000000000000000081525060200191505060405180910390fd5b005b600080fd5b34801561024357600080fd5b5061024c6106e2565b604051610259919061448c565b60405180910390f35b34801561026e57600080fd5b5061028960048036038101906102849190613cc0565b610784565b604051610296919061443b565b60405180910390f35b6102a76107a2565b005b3480156102b557600080fd5b506102be6107b8565b6040516102cb9190614585565b60405180910390f35b3480156102e057600080fd5b506102fb60048036038101906102f69190613c35565b6107c2565b604051610308919061443b565b60405180910390f35b34801561031d57600080fd5b5061033860048036038101906103339190613d4b565b61089b565b60405161034894939291906145a0565b60405180910390f35b34801561035d57600080fd5b50610366610da8565b60405161037391906145e5565b60405180910390f35b34801561038857600080fd5b506103a3600480360381019061039e9190613cc0565b610dbf565b6040516103b0919061443b565b60405180910390f35b6103d360048036038101906103ce9190613e8a565b610e72565b005b3480156103e157600080fd5b506103ea611052565b6040516103f79190614305565b60405180910390f35b34801561040c57600080fd5b5061042760048036038101906104229190613ba7565b611076565b6040516104349190614585565b60405180910390f35b34801561044957600080fd5b506104526110be565b60405161045f9190614305565b60405180910390f35b34801561047457600080fd5b5061048f600480360381019061048a9190613c84565b6110e4565b005b34801561049d57600080fd5b506104a66112fa565b6040516104b39190614305565b60405180910390f35b3480156104c857600080fd5b506104d1611320565b6040516104de919061448c565b60405180910390f35b3480156104f357600080fd5b5061050e60048036038101906105099190613cc0565b6113c2565b60405161051b919061443b565b60405180910390f35b34801561053057600080fd5b5061054b60048036038101906105469190613ba7565b61148f565b005b34801561055957600080fd5b50610574600480360381019061056f9190613cc0565b6115f6565b604051610581919061443b565b60405180910390f35b34801561059657600080fd5b506105b160048036038101906105ac9190613e61565b611614565b6040516105c194939291906143f6565b60405180910390f35b3480156105d657600080fd5b506105df6116c0565b6040516105ec9190614456565b60405180910390f35b34801561060157600080fd5b5061060a6116e4565b6040516106179190614305565b60405180910390f35b34801561062c57600080fd5b5061064760048036038101906106429190613d4b565b611708565b6040516106579493929190614540565b60405180910390f35b34801561066c57600080fd5b5061068760048036038101906106829190613f65565b611856565b005b34801561069557600080fd5b506106b060048036038101906106ab9190613bf9565b6118e3565b6040516106bd9190614585565b60405180910390f35b6106e060048036038101906106db9190613cfc565b61196a565b005b606060038054600181600116156101000203166002900480601f01602080910402602001604051908101604052809291908181526020018280546001816001161561010002031660029004801561077a5780601f1061074f5761010080835404028352916020019161077a565b820191906000526020600020905b81548152906001019060200180831161075d57829003601f168201915b5050505050905090565b6000610798610791611b29565b8484611b31565b6001905092915050565b60004711156107b6576107b53347611d28565b5b565b6000600254905090565b60006107cf848484611ea4565b610890846107db611b29565b61088b8560405180606001604052806028815260200161492760289139600160008b73ffffffffffffffffffffffffffffffffffffffff1673ffffffffffffffffffffffffffffffffffffffff1681526020019081526020016000206000610841611b29565b73ffffffffffffffffffffffffffffffffffffffff1673ffffffffffffffffffffffffffffffffffffffff168152602001908152602001600020546121659092919063ffffffff16565b611b31565b600190509392505050565b6000806000807f000000000000000000000000000000000000000000000000000000000000000073ffffffffffffffffffffffffffffffffffffffff166313ead5623089600660149054906101000a900462ffffff166633ebc7c431ab056040518563ffffffff1660e01b81526004016109189493929190614357565b602060405180830381600087803b15801561093257600080fd5b505af1158015610946573d6000803e3d6000fd5b505050506040513d601f19601f8201168201806040525081019061096a9190613bd0565b50610996307f00000000000000000000000000000000000000000000000000000000000000008861221f565b6109c1877f00000000000000000000000000000000000000000000000000000000000000008761221f565b60006040518061016001604052803073ffffffffffffffffffffffffffffffffffffffff1681526020018973ffffffffffffffffffffffffffffffffffffffff168152602001600660149054906101000a900462ffffff1662ffffff1681526020017ffffffffffffffffffffffffffffffffffffffffffffffffffffffffffff2761860020b81526020017ffffffffffffffffffffffffffffffffffffffffffffffffffffffffffff2761860000360020b815260200188815260200187815260200160008152602001600081526020013073ffffffffffffffffffffffffffffffffffffffff1681526020014281525090507f000000000000000000000000000000000000000000000000000000000000000073ffffffffffffffffffffffffffffffffffffffff166388316456826040518263ffffffff1660e01b8152600401610b0d9190614509565b608060405180830381600087803b158015610b2757600080fd5b505af1158015610b3b573d6000803e3d6000fd5b505050506040513d601f19601f82011682018060405250810190610b5f9190613ec6565b8095508196508297508398505050505060405180608001604052803373ffffffffffffffffffffffffffffffffffffffff168152602001856fffffffffffffffffffffffffffffffff1681526020013073ffffffffffffffffffffffffffffffffffffffff1681526020018973ffffffffffffffffffffffffffffffffffffffff168152506007600087815260200190815260200160002060008201518160000160006101000a81548173ffffffffffffffffffffffffffffffffffffffff021916908373ffffffffffffffffffffffffffffffffffffffff16021790555060208201518160010160006101000a8154816fffffffffffffffffffffffffffffffff02191690836fffffffffffffffffffffffffffffffff16021790555060408201518160020160006101000a81548173ffffffffffffffffffffffffffffffffffffffff021916908373ffffffffffffffffffffffffffffffffffffffff16021790555060608201518160030160006101000a81548173ffffffffffffffffffffffffffffffffffffffff021916908373ffffffffffffffffffffffffffffffffffffffff16021790555090505086831015610d5657610d42307f0000000000000000000000000000000000000000000000000000000000000000600061221f565b60008388039050610d54303383612420565b505b85821015610d9e57610d8a887f0000000000000000000000000000000000000000000000000000000000000000600061221f565b60008287039050610d9c893383612420565b505b5093509350935093565b6000600560009054906101000a900460ff16905090565b6000610e68610dcc611b29565b84610e638560016000610ddd611b29565b73ffffffffffffffffffffffffffffffffffffffff1673ffffffffffffffffffffffffffffffffffffffff16815260200190815260200160002060008973ffffffffffffffffffffffffffffffffffffffff1673ffffffffffffffffffffffffffffffffffffffff16815260200190815260200160002054611aa190919063ffffffff16565b611b31565b6001905092915050565b60007f000000000000000000000000000000000000000000000000000000000000000073ffffffffffffffffffffffffffffffffffffffff166370a08231306040518263ffffffff1660e01b8152600401808273ffffffffffffffffffffffffffffffffffffffff16815260200191505060206040518083038186803b158015610efb57600080fd5b505afa158015610f0f573d6000803e3d6000fd5b505050506040513d6020811015610f2557600080fd5b8101908080519060200190929190505050905082811015610fae576040517f08c379a00000000000000000000000000000000000000000000000000000000081526004018080602001828103825260128152602001807f496e73756666696369656e74205745544839000000000000000000000000000081525060200191505060405180910390fd5b600081111561104d577f000000000000000000000000000000000000000000000000000000000000000073ffffffffffffffffffffffffffffffffffffffff16632e1a7d4d826040518263ffffffff1660e01b815260040180828152602001915050600060405180830381600087803b15801561102a57600080fd5b505af115801561103e573d6000803e3d6000fd5b5050505061104c8282611d28565b5b505050565b7f000000000000000000000000000000000000000000000000000000000000000081565b60008060008373ffffffffffffffffffffffffffffffffffffffff1673ffffffffffffffffffffffffffffffffffffffff168152602001908152602001600020549050919050565b600660009054906101000a900473ffffffffffffffffffffffffffffffffffffffff1681565b600560019054906101000a900473ffffffffffffffffffffffffffffffffffffffff1673ffffffffffffffffffffffffffffffffffffffff163373ffffffffffffffffffffffffffffffffffffffff1614611174576040517f08c379a000000000000000000000000000000000000000000000000000000000815260040161116b906144ce565b60405180910390fd5b6000600660009054906101000a900473ffffffffffffffffffffffffffffffffffffffff1673ffffffffffffffffffffffffffffffffffffffff1663a16712953085856040518463ffffffff1660e01b81526004016111d593929190614320565b602060405180830381600087803b1580156111ef57600080fd5b505af1158015611203573d6000803e3d6000fd5b505050506040513d601f19601f820116820180604052508101906112279190613bd0565b90508073ffffffffffffffffffffffffffffffffffffffff1663f637731d6a0c16bbd86f191a6f21dbe96040518263ffffffff1660e01b815260040161126d9190614471565b600060405180830381600087803b15801561128757600080fd5b505af115801561129b573d6000803e3d6000fd5b5050505081600660146101000a81548162ffffff021916908362ffffff1602179055507f87d8b330a71d4409400e251d73affac8736c3b5307a5abdb189374943d155fef816040516112ed9190614305565b60405180910390a1505050565b600560019054906101000a900473ffffffffffffffffffffffffffffffffffffffff1681565b606060048054600181600116156101000203166002900480601f0160208091040260200160405190810160405280929190818152602001828054600181600116156101000203166002900480156113b85780601f1061138d576101008083540402835291602001916113b8565b820191906000526020600020905b81548152906001019060200180831161139b57829003601f168201915b5050505050905090565b60006114856113cf611b29565b846114808560405180606001604052806025815260200161499860259139600160006113f9611b29565b73ffffffffffffffffffffffffffffffffffffffff1673ffffffffffffffffffffffffffffffffffffffff16815260200190815260200160002060008a73ffffffffffffffffffffffffffffffffffffffff1673ffffffffffffffffffffffffffffffffffffffff168152602001908152602001600020546121659092919063ffffffff16565b611b31565b6001905092915050565b600560019054906101000a900473ffffffffffffffffffffffffffffffffffffffff1673ffffffffffffffffffffffffffffffffffffffff163373ffffffffffffffffffffffffffffffffffffffff161461151f576040517f08c379a0000000000000000000000000000000000000000000000000000000008152600401611516906144ce565b60405180910390fd5b600073ffffffffffffffffffffffffffffffffffffffff168173ffffffffffffffffffffffffffffffffffffffff16141561155957600080fd5b80600560016101000a81548173ffffffffffffffffffffffffffffffffffffffff021916908373ffffffffffffffffffffffffffffffffffffffff1602179055507f595ee9ffef04d4d652b768860c56905a48f5ab79124bb3b2279df1885536991d600560019054906101000a900473ffffffffffffffffffffffffffffffffffffffff166040516115eb9190614305565b60405180910390a150565b600061160a611603611b29565b8484611ea4565b6001905092915050565b60076020528060005260406000206000915090508060000160009054906101000a900473ffffffffffffffffffffffffffffffffffffffff16908060010160009054906101000a90046fffffffffffffffffffffffffffffffff16908060020160009054906101000a900473ffffffffffffffffffffffffffffffffffffffff16908060030160009054906101000a900473ffffffffffffffffffffffffffffffffffffffff16905084565b7f000000000000000000000000000000000000000000000000000000000000000081565b7f000000000000000000000000000000000000000000000000000000000000000081565b60008060008060006040518061014001604052803073ffffffffffffffffffffffffffffffffffffffff1681526020018973ffffffffffffffffffffffffffffffffffffffff168152602001600660149054906101000a900462ffffff1662ffffff1681526020013073ffffffffffffffffffffffffffffffffffffffff1681526020017ffffffffffffffffffffffffffffffffffffffffffffffffffffffffffff2761860020b81526020017ffffffffffffffffffffffffffffffffffffffffffffffffffffffffffff2761860000360020b815260200188815260200187815260200160328152602001612710815250905061180581612621565b809550819650829750839850505050507f1ef345ba02ad1496c570397389519582d89d16cd1503cf72053882fb8c28b52e856040516118449190614525565b60405180910390a15093509350935093565b600082828101906118679190613d9a565b90506118977f00000000000000000000000000000000000000000000000000000000000000008260000151612a0a565b5060008511156118ba576118b981600001516000015182602001513388612a56565b5b60008411156118dc576118db81600001516020015182602001513387612a56565b5b5050505050565b6000600160008473ffffffffffffffffffffffffffffffffffffffff1673ffffffffffffffffffffffffffffffffffffffff16815260200190815260200160002060008373ffffffffffffffffffffffffffffffffffffffff1673ffffffffffffffffffffffffffffffffffffffff16815260200190815260200160002054905092915050565b60008373ffffffffffffffffffffffffffffffffffffffff166370a08231306040518263ffffffff1660e01b8152600401808273ffffffffffffffffffffffffffffffffffffffff16815260200191505060206040518083038186803b1580156119d357600080fd5b505afa1580156119e7573d6000803e3d6000fd5b505050506040513d60208110156119fd57600080fd5b8101908080519060200190929190505050905082811015611a86576040517f08c379a00000000000000000000000000000000000000000000000000000000081526004018080602001828103825260128152602001807f496e73756666696369656e7420746f6b656e000000000000000000000000000081525060200191505060405180910390fd5b6000811115611a9b57611a9a848383612420565b5b50505050565b600080828401905083811015611b1f576040517f08c379a000000000000000000000000000000000000000000000000000000000815260040180806020018281038252601b8152602001807f536166654d6174683a206164646974696f6e206f766572666c6f77000000000081525060200191505060405180910390fd5b8091505092915050565b600033905090565b600073ffffffffffffffffffffffffffffffffffffffff168373ffffffffffffffffffffffffffffffffffffffff161415611bb7576040517f08c379a00000000000000000000000000000000000000000000000000000000081526004018080602001828103825260248152602001806149746024913960400191505060405180910390fd5b600073ffffffffffffffffffffffffffffffffffffffff168273ffffffffffffffffffffffffffffffffffffffff161415611c3d576040517f08c379a00000000000000000000000000000000000000000000000000000000081526004018080602001828103825260228152602001806148df6022913960400191505060405180910390fd5b80600160008573ffffffffffffffffffffffffffffffffffffffff1673ffffffffffffffffffffffffffffffffffffffff16815260200190815260200160002060008473ffffffffffffffffffffffffffffffffffffffff1673ffffffffffffffffffffffffffffffffffffffff168152602001908152602001600020819055508173ffffffffffffffffffffffffffffffffffffffff168373ffffffffffffffffffffffffffffffffffffffff167f8c5be1e5ebec7d5bd14f71427d1e84f3dd0314c0f7b2291e5b200ac8c7c3b925836040518082815260200191505060405180910390a3505050565b60008273ffffffffffffffffffffffffffffffffffffffff1682600067ffffffffffffffff81118015611d5a57600080fd5b506040519080825280601f01601f191660200182016040528015611d8d5781602001600182028036833780820191505090505b506040518082805190602001908083835b60208310611dc15780518252602082019150602081019050602083039250611d9e565b6001836020036101000a03801982511681845116808217855250505050505090500191505060006040518083038185875af1925050503d8060008114611e23576040519150601f19603f3d011682016040523d82523d6000602084013e611e28565b606091505b5050905080611e9f576040517f08c379a00000000000000000000000000000000000000000000000000000000081526004018080602001828103825260038152602001807f535445000000000000000000000000000000000000000000000000000000000081525060200191505060405180910390fd5b505050565b600073ffffffffffffffffffffffffffffffffffffffff168373ffffffffffffffffffffffffffffffffffffffff161415611f2a576040517f08c379a000000000000000000000000000000000000000000000000000000000815260040180806020018281038252602581526020018061494f6025913960400191505060405180910390fd5b600073ffffffffffffffffffffffffffffffffffffffff168273ffffffffffffffffffffffffffffffffffffffff161415611fb0576040517f08c379a00000000000000000000000000000000000000000000000000000000081526004018080602001828103825260238152602001806148bc6023913960400191505060405180910390fd5b611fbb838383612c61565b61202681604051806060016040528060268152602001614901602691396000808773ffffffffffffffffffffffffffffffffffffffff1673ffffffffffffffffffffffffffffffffffffffff168152602001908152602001600020546121659092919063ffffffff16565b6000808573ffffffffffffffffffffffffffffffffffffffff1673ffffffffffffffffffffffffffffffffffffffff168152602001908152602001600020819055506120b9816000808573ffffffffffffffffffffffffffffffffffffffff1673ffffffffffffffffffffffffffffffffffffffff16815260200190815260200160002054611aa190919063ffffffff16565b6000808473ffffffffffffffffffffffffffffffffffffffff1673ffffffffffffffffffffffffffffffffffffffff168152602001908152602001600020819055508173ffffffffffffffffffffffffffffffffffffffff168373ffffffffffffffffffffffffffffffffffffffff167fddf252ad1be2c89b69c2b068fc378daa952ba7f163c4a11628f55a4df523b3ef836040518082815260200191505060405180910390a3505050565b6000838311158290612212576040517f08c379a00000000000000000000000000000000000000000000000000000000081526004018080602001828103825283818151815260200191508051906020019080838360005b838110156121d75780820151818401526020810190506121bc565b50505050905090810190601f1680156122045780820380516001836020036101000a031916815260200191505b509250505060405180910390fd5b5082840390509392505050565b6000808473ffffffffffffffffffffffffffffffffffffffff1663095ea7b360e01b8585604051602401808373ffffffffffffffffffffffffffffffffffffffff16815260200182815260200192505050604051602081830303815290604052907bffffffffffffffffffffffffffffffffffffffffffffffffffffffff19166020820180517bffffffffffffffffffffffffffffffffffffffffffffffffffffffff83818316178352505050506040518082805190602001908083835b6020831061230057805182526020820191506020810190506020830392506122dd565b6001836020036101000a0380198251168184511680821785525050505050509050019150506000604051808303816000865af19150503d8060008114612362576040519150601f19603f3d011682016040523d82523d6000602084013e612367565b606091505b50915091508180156123a757506000815114806123a6575080806020019051602081101561239457600080fd5b81019080805190602001909291905050505b5b612419576040517f08c379a00000000000000000000000000000000000000000000000000000000081526004018080602001828103825260028152602001807f534100000000000000000000000000000000000000000000000000000000000081525060200191505060405180910390fd5b5050505050565b6000808473ffffffffffffffffffffffffffffffffffffffff1663a9059cbb60e01b8585604051602401808373ffffffffffffffffffffffffffffffffffffffff16815260200182815260200192505050604051602081830303815290604052907bffffffffffffffffffffffffffffffffffffffffffffffffffffffff19166020820180517bffffffffffffffffffffffffffffffffffffffffffffffffffffffff83818316178352505050506040518082805190602001908083835b6020831061250157805182526020820191506020810190506020830392506124de565b6001836020036101000a0380198251168184511680821785525050505050509050019150506000604051808303816000865af19150503d8060008114612563576040519150601f19603f3d011682016040523d82523d6000602084013e612568565b606091505b50915091508180156125a857506000815114806125a7575080806020019051602081101561259557600080fd5b81019080805190602001909291905050505b5b61261a576040517f08c379a00000000000000000000000000000000000000000000000000000000081526004018080602001828103825260028152602001807f535400000000000000000000000000000000000000000000000000000000000081525060200191505060405180910390fd5b5050505050565b60008060008060006040518060600160405280876000015173ffffffffffffffffffffffffffffffffffffffff168152602001876020015173ffffffffffffffffffffffffffffffffffffffff168152602001876040015162ffffff1681525090506126ad7f000000000000000000000000000000000000000000000000000000000000000082612c66565b915060008273ffffffffffffffffffffffffffffffffffffffff16633850c7bd6040518163ffffffff1660e01b815260040160e06040518083038186803b1580156126f757600080fd5b505afa15801561270b573d6000803e3d6000fd5b505050506040513d601f19601f8201168201806040525081019061272f9190613dc3565b505050505050905060006127468860800151612dc1565b905060006127578960a00151612dc1565b90506127ae6040518060400160405280600881526020017f536c6f743a2025730000000000000000000000000000000000000000000000008152508473ffffffffffffffffffffffffffffffffffffffff166131fc565b6128036040518060400160405280601281526020017f73717274526174696f415839363a2025732000000000000000000000000000008152508373ffffffffffffffffffffffffffffffffffffffff166131fc565b6128586040518060400160405280601281526020017f73717274526174696f425839363a2025732000000000000000000000000000008152508273ffffffffffffffffffffffffffffffffffffffff166131fc565b61286d8383838c60c001518d60e00151613303565b97505050506128ba6040518060400160405280601681526020017f616d6f756e74302025732c20616d6f756e7431202573000000000000000000008152508760c001518860e0015161342f565b8173ffffffffffffffffffffffffffffffffffffffff16633c8a7d8d876060015188608001518960a001518960405180604001604052808881526020013373ffffffffffffffffffffffffffffffffffffffff1681525060405160200161292191906144ee565b6040516020818303038152906040526040518663ffffffff1660e01b815260040161295095949392919061439c565b6040805180830381600087803b15801561296957600080fd5b505af115801561297d573d6000803e3d6000fd5b505050506040513d601f19601f820116820180604052508101906129a19190613f29565b809450819550505085610100015184101580156129c357508561012001518310155b612a02576040517f08c379a00000000000000000000000000000000000000000000000000000000081526004016129f9906144ae565b60405180910390fd5b509193509193565b6000612a168383612c66565b90508073ffffffffffffffffffffffffffffffffffffffff163373ffffffffffffffffffffffffffffffffffffffff1614612a5057600080fd5b92915050565b7f000000000000000000000000000000000000000000000000000000000000000073ffffffffffffffffffffffffffffffffffffffff168473ffffffffffffffffffffffffffffffffffffffff16148015612ab15750804710155b15612c09577f000000000000000000000000000000000000000000000000000000000000000073ffffffffffffffffffffffffffffffffffffffff1663d0e30db0826040518263ffffffff1660e01b81526004016000604051808303818588803b158015612b1e57600080fd5b505af1158015612b32573d6000803e3d6000fd5b50505050507f000000000000000000000000000000000000000000000000000000000000000073ffffffffffffffffffffffffffffffffffffffff1663a9059cbb83836040518363ffffffff1660e01b8152600401808373ffffffffffffffffffffffffffffffffffffffff16815260200182815260200192505050602060405180830381600087803b158015612bc857600080fd5b505af1158015612bdc573d6000803e3d6000fd5b505050506040513d6020811015612bf257600080fd5b810190808051906020019092919050505050612c5b565b3073ffffffffffffffffffffffffffffffffffffffff168373ffffffffffffffffffffffffffffffffffffffff161415612c4d57612c48848383612420565b612c5a565b612c598484848461353f565b5b5b50505050565b505050565b6000816020015173ffffffffffffffffffffffffffffffffffffffff16826000015173ffffffffffffffffffffffffffffffffffffffff1610612ca857600080fd5b82826000015183602001518460400151604051602001808473ffffffffffffffffffffffffffffffffffffffff1681526020018373ffffffffffffffffffffffffffffffffffffffff1681526020018262ffffff1681526020019350505050604051602081830303815290604052805190602001207fe34f199b19b2b4f47f68442619d555527d244f78a3297ea89325f843f87b8b5460001b60405160200180807fff000000000000000000000000000000000000000000000000000000000000008152506001018473ffffffffffffffffffffffffffffffffffffffff1660601b815260140183815260200182815260200193505050506040516020818303038152906040528051906020012060001c905092915050565b60008060008360020b12612dd8578260020b612de0565b8260020b6000035b90507ffffffffffffffffffffffffffffffffffffffffffffffffffffffffffff2761860000360020b811115612e7e576040517f08c379a00000000000000000000000000000000000000000000000000000000081526004018080602001828103825260018152602001807f540000000000000000000000000000000000000000000000000000000000000081525060200191505060405180910390fd5b600080600183161415612ea257700100000000000000000000000000000000612eb4565b6ffffcb933bd6fad37aa2d162d1a5940015b70ffffffffffffffffffffffffffffffffff16905060006002831614612eee5760806ffff97272373d413259a46990580e213a8202901c90505b60006004831614612f135760806ffff2e50f5f656932ef12357cf3c7fdcc8202901c90505b60006008831614612f385760806fffe5caca7e10e4e61c3624eaa0941cd08202901c90505b60006010831614612f5d5760806fffcb9843d60f6159c9db58835c9266448202901c90505b60006020831614612f825760806fff973b41fa98c081472e6896dfb254c08202901c90505b60006040831614612fa75760806fff2ea16466c96a3843ec78b326b528618202901c90505b60006080831614612fcc5760806ffe5dee046a99a2a811c461f1969c30538202901c90505b6000610100831614612ff25760806ffcbe86c7900a88aedcffc83b479aa3a48202901c90505b60006102008316146130185760806ff987a7253ac413176f2b074cf7815e548202901c90505b600061040083161461303e5760806ff3392b0822b70005940c7a398e4b70f38202901c90505b60006108008316146130645760806fe7159475a2c29b7443b29c7fa6e889d98202901c90505b600061100083161461308a5760806fd097f3bdfd2022b8845ad8f792aa58258202901c90505b60006120008316146130b05760806fa9f746462d870fdf8a65dc1f90e061e58202901c90505b60006140008316146130d65760806f70d869a156d2a1b890bb3df62baf32f78202901c90505b60006180008316146130fc5760806f31be135f97d08fd981231505542fcfa68202901c90505b6000620100008316146131235760806f09aa508b5b7a84e1c677de54f3e99bc98202901c90505b6000620200008316146131495760806e5d6af8dedb81196699c329225ee6048202901c90505b60006204000083161461316e5760806d2216e584f5fa1ea926041bedfe988202901c90505b6000620800008316146131915760806b048a170391f7dc42444e8fa28202901c90505b60008460020b13156131ca57807fffffffffffffffffffffffffffffffffffffffffffffffffffffffffffffffff816131c657fe5b0490505b600064010000000082816131da57fe5b06146131e75760016131ea565b60005b60ff16602082901c0192505050919050565b6132ff82826040516024018080602001838152602001828103825284818151815260200191508051906020019080838360005b8381101561324a57808201518184015260208101905061322f565b50505050905090810190601f1680156132775780820380516001836020036101000a031916815260200191505b5093505050506040516020818303038152906040527f9710a9d0000000000000000000000000000000000000000000000000000000007bffffffffffffffffffffffffffffffffffffffffffffffffffffffff19166020820180517bffffffffffffffffffffffffffffffffffffffffffffffffffffffff838183161783525050505061375f565b5050565b60008373ffffffffffffffffffffffffffffffffffffffff168573ffffffffffffffffffffffffffffffffffffffff16111561334457838580955081965050505b8473ffffffffffffffffffffffffffffffffffffffff168673ffffffffffffffffffffffffffffffffffffffff161161338957613382858585613788565b9050613426565b8373ffffffffffffffffffffffffffffffffffffffff168673ffffffffffffffffffffffffffffffffffffffff1610156134175760006133ca878686613788565b905060006133d9878986613846565b9050806fffffffffffffffffffffffffffffffff16826fffffffffffffffffffffffffffffffff161061340c578061340e565b815b92505050613425565b613422858584613846565b90505b5b95945050505050565b61353a8383836040516024018080602001848152602001838152602001828103825285818151815260200191508051906020019080838360005b83811015613484578082015181840152602081019050613469565b50505050905090810190601f1680156134b15780820380516001836020036101000a031916815260200191505b509450505050506040516020818303038152906040527f969cdd03000000000000000000000000000000000000000000000000000000007bffffffffffffffffffffffffffffffffffffffffffffffffffffffff19166020820180517bffffffffffffffffffffffffffffffffffffffffffffffffffffffff838183161783525050505061375f565b505050565b6000808573ffffffffffffffffffffffffffffffffffffffff166323b872dd60e01b868686604051602401808473ffffffffffffffffffffffffffffffffffffffff1681526020018373ffffffffffffffffffffffffffffffffffffffff1681526020018281526020019350505050604051602081830303815290604052907bffffffffffffffffffffffffffffffffffffffffffffffffffffffff19166020820180517bffffffffffffffffffffffffffffffffffffffffffffffffffffffff83818316178352505050506040518082805190602001908083835b6020831061363e578051825260208201915060208101905060208303925061361b565b6001836020036101000a0380198251168184511680821785525050505050509050019150506000604051808303816000865af19150503d80600081146136a0576040519150601f19603f3d011682016040523d82523d6000602084013e6136a5565b606091505b50915091508180156136e557506000815114806136e457508080602001905160208110156136d257600080fd5b81019080805190602001909291905050505b5b613757576040517f08c379a00000000000000000000000000000000000000000000000000000000081526004018080602001828103825260038152602001807f535446000000000000000000000000000000000000000000000000000000000081525060200191505060405180910390fd5b505050505050565b60008151905060006a636f6e736f6c652e6c6f679050602083016000808483855afa5050505050565b60008273ffffffffffffffffffffffffffffffffffffffff168473ffffffffffffffffffffffffffffffffffffffff1611156137c957828480945081955050505b600061380f8573ffffffffffffffffffffffffffffffffffffffff168573ffffffffffffffffffffffffffffffffffffffff166c010000000000000000000000006138c8565b905061383c613837848388880373ffffffffffffffffffffffffffffffffffffffff166138c8565b6139a2565b9150509392505050565b60008273ffffffffffffffffffffffffffffffffffffffff168473ffffffffffffffffffffffffffffffffffffffff16111561388757828480945081955050505b6138bf6138ba836c0100000000000000000000000087870373ffffffffffffffffffffffffffffffffffffffff166138c8565b6139a2565b90509392505050565b60008060008019858709858702925082811083820303915050600081141561390357600084116138f757600080fd5b8382049250505061399b565b80841161390f57600080fd5b600084868809905082811182039150808303925060008586600003169050808604955080840493506001818260000304019050808302841793506000600287600302189050808702600203810290508087026002038102905080870260020381029050808702600203810290508087026002038102905080870260020381029050808502955050505050505b9392505050565b600081829150816fffffffffffffffffffffffffffffffff16146139c557600080fd5b919050565b6000813590506139d9816147ec565b92915050565b6000815190506139ee816147ec565b92915050565b600081519050613a0381614803565b92915050565b60008083601f840112613a1b57600080fd5b8235905067ffffffffffffffff811115613a3457600080fd5b602083019150836001820283011115613a4c57600080fd5b9250929050565b600081519050613a628161481a565b92915050565b600060808284031215613a7a57600080fd5b613a846040614600565b90506000613a9484828501613ab4565b6000830152506060613aa8848285016139ca565b60208301525092915050565b600060608284031215613ac657600080fd5b613ad06060614600565b90506000613ae0848285016139ca565b6000830152506020613af4848285016139ca565b6020830152506040613b0884828501613b53565b60408301525092915050565b600081519050613b2381614831565b92915050565b600081519050613b388161485f565b92915050565b600081519050613b4d81614848565b92915050565b600081359050613b6281614876565b92915050565b600081359050613b778161488d565b92915050565b600081519050613b8c8161488d565b92915050565b600081519050613ba1816148a4565b92915050565b600060208284031215613bb957600080fd5b6000613bc7848285016139ca565b91505092915050565b600060208284031215613be257600080fd5b6000613bf0848285016139df565b91505092915050565b60008060408385031215613c0c57600080fd5b6000613c1a858286016139ca565b9250506020613c2b858286016139ca565b9150509250929050565b600080600060608486031215613c4a57600080fd5b6000613c58868287016139ca565b9350506020613c69868287016139ca565b9250506040613c7a86828701613b68565b9150509250925092565b60008060408385031215613c9757600080fd5b6000613ca5858286016139ca565b9250506020613cb685828601613b53565b9150509250929050565b60008060408385031215613cd357600080fd5b6000613ce1858286016139ca565b9250506020613cf285828601613b68565b9150509250929050565b600080600060608486031215613d1157600080fd5b6000613d1f868287016139ca565b9350506020613d3086828701613b68565b9250506040613d41868287016139ca565b9150509250925092565b600080600060608486031215613d6057600080fd5b6000613d6e868287016139ca565b9350506020613d7f86828701613b68565b9250506040613d9086828701613b68565b9150509250925092565b600060808284031215613dac57600080fd5b6000613dba84828501613a68565b91505092915050565b600080600080600080600060e0888a031215613dde57600080fd5b6000613dec8a828b01613b29565b9750506020613dfd8a828b01613a53565b9650506040613e0e8a828b01613b3e565b9550506060613e1f8a828b01613b3e565b9450506080613e308a828b01613b3e565b93505060a0613e418a828b01613b92565b92505060c0613e528a828b016139f4565b91505092959891949750929550565b600060208284031215613e7357600080fd5b6000613e8184828501613b68565b91505092915050565b60008060408385031215613e9d57600080fd5b6000613eab85828601613b68565b9250506020613ebc858286016139ca565b9150509250929050565b60008060008060808587031215613edc57600080fd5b6000613eea87828801613b7d565b9450506020613efb87828801613b14565b9350506040613f0c87828801613b7d565b9250506060613f1d87828801613b7d565b91505092959194509250565b60008060408385031215613f3c57600080fd5b6000613f4a85828601613b7d565b9250506020613f5b85828601613b7d565b9150509250929050565b60008060008060608587031215613f7b57600080fd5b6000613f8987828801613b68565b9450506020613f9a87828801613b68565b935050604085013567ffffffffffffffff811115613fb757600080fd5b613fc387828801613a09565b925092505092959194509250565b613fda81614704565b82525050565b613fe981614669565b82525050565b613ff881614669565b82525050565b6140078161467b565b82525050565b600061401882614631565b6140228185614647565b93506140328185602086016147a6565b61403b816147db565b840191505092915050565b61404f81614716565b82525050565b61405e8161473a565b82525050565b61406d81614687565b82525050565b61407c81614687565b82525050565b61408b8161475e565b82525050565b61409a81614770565b82525050565b60006140ab8261463c565b6140b58185614658565b93506140c58185602086016147a6565b6140ce816147db565b840191505092915050565b60006140e6601483614658565b91507f507269636520736c69707061676520636865636b0000000000000000000000006000830152602082019050919050565b6000614126601d83614658565b91507f54686973206973206e6f74206f776e6572206f6620636f6e74726163740000006000830152602082019050919050565b60808201600082015161416f6000850182614269565b5060208201516141826060850182613fe0565b50505050565b6101608201600082015161419f6000850182613fe0565b5060208201516141b26020850182613fe0565b5060408201516141c560408501826142ba565b5060608201516141d86060850182614064565b5060808201516141eb6080850182614064565b5060a08201516141fe60a08501826142d8565b5060c082015161421160c08501826142d8565b5060e082015161422460e08501826142d8565b506101008201516142396101008501826142d8565b5061012082015161424e610120850182613fe0565b506101408201516142636101408501826142d8565b50505050565b60608201600082015161427f6000850182613fe0565b5060208201516142926020850182613fe0565b5060408201516142a560408501826142ba565b50505050565b6142b481614694565b82525050565b6142c3816146de565b82525050565b6142d2816146de565b82525050565b6142e1816146ed565b82525050565b6142f0816146ed565b82525050565b6142ff816146f7565b82525050565b600060208201905061431a6000830184613fef565b92915050565b60006060820190506143356000830186613fd1565b6143426020830185613fef565b61434f60408301846142c9565b949350505050565b600060808201905061436c6000830187613fd1565b6143796020830186613fef565b61438660408301856142c9565b6143936060830184614091565b95945050505050565b600060a0820190506143b16000830188613fef565b6143be6020830187614073565b6143cb6040830186614073565b6143d860608301856142ab565b81810360808301526143ea818461400d565b90509695505050505050565b600060808201905061440b6000830187613fef565b61441860208301866142ab565b6144256040830185613fef565b6144326060830184613fef565b95945050505050565b60006020820190506144506000830184613ffe565b92915050565b600060208201905061446b6000830184614046565b92915050565b60006020820190506144866000830184614082565b92915050565b600060208201905081810360008301526144a681846140a0565b905092915050565b600060208201905081810360008301526144c7816140d9565b9050919050565b600060208201905081810360008301526144e781614119565b9050919050565b60006080820190506145036000830184614159565b92915050565b60006101608201905061451f6000830184614188565b92915050565b600060208201905061453a60008301846142ab565b92915050565b600060808201905061455560008301876142ab565b61456260208301866142e7565b61456f60408301856142e7565b61457c6060830184614055565b95945050505050565b600060208201905061459a60008301846142e7565b92915050565b60006080820190506145b560008301876142e7565b6145c260208301866142ab565b6145cf60408301856142e7565b6145dc60608301846142e7565b95945050505050565b60006020820190506145fa60008301846142f6565b92915050565b6000604051905081810181811067ffffffffffffffff82111715614627576146266147d9565b5b8060405250919050565b600081519050919050565b600081519050919050565b600082825260208201905092915050565b600082825260208201905092915050565b6000614674826146be565b9050919050565b60008115159050919050565b60008160020b9050919050565b60006fffffffffffffffffffffffffffffffff82169050919050565b600061ffff82169050919050565b600073ffffffffffffffffffffffffffffffffffffffff82169050919050565b600062ffffff82169050919050565b6000819050919050565b600060ff82169050919050565b600061470f82614782565b9050919050565b600061472182614728565b9050919050565b6000614733826146be565b9050919050565b60006147458261474c565b9050919050565b6000614757826146be565b9050919050565b6000614769826146be565b9050919050565b600061477b826146be565b9050919050565b600061478d82614794565b9050919050565b600061479f826146be565b9050919050565b60005b838110156147c45780820151818401526020810190506147a9565b838111156147d3576000848401525b50505050565bfe5b6000601f19601f8301169050919050565b6147f581614669565b811461480057600080fd5b50565b61480c8161467b565b811461481757600080fd5b50565b61482381614687565b811461482e57600080fd5b50565b61483a81614694565b811461484557600080fd5b50565b614851816146b0565b811461485c57600080fd5b50565b614868816146be565b811461487357600080fd5b50565b61487f816146de565b811461488a57600080fd5b50565b614896816146ed565b81146148a157600080fd5b50565b6148ad816146f7565b81146148b857600080fd5b5056fe45524332303a207472616e7366657220746f20746865207a65726f206164647265737345524332303a20617070726f766520746f20746865207a65726f206164647265737345524332303a207472616e7366657220616d6f756e7420657863656564732062616c616e636545524332303a207472616e7366657220616d6f756e74206578636565647320616c6c6f77616e636545524332303a207472616e736665722066726f6d20746865207a65726f206164647265737345524332303a20617070726f76652066726f6d20746865207a65726f206164647265737345524332303a2064656372656173656420616c6c6f77616e63652062656c6f77207a65726fa2646970667358221220d507749e9ad6f29c3ebe0fb9207ebcb24f6419f6e217ef1b7576d5576c017ef364736f6c63430007060033",
  "linkReferences": {},
  "deployedLinkReferences": {}
}